:020000040800F2
:100000000000012031090008C1080008C9080008E3
:10001000D1080008D9080008E10800080000000025
:10002000000000000000000000000000A1290008FE
:10003000E908000800000000C12B0008292C000876
:100040008109000881090008810900088109000868
:100050008109000881090008810900088109000858
:100060008109000881090008810900088109000848
:100070008109000881090008810900088109000838
:1000800081090008810900088109000800000000BA
:1000900000000000000000000000000081090008CE
:1000A0008109000881090008810900088109000808
:1000B000F908000881090008810900088109000881
:1000C00081090008810900088109000881090008E8
:1000D000810900088109000881090008000000006A
:1000E000810900088109000881090008000000005A
:1000F000000000000000000000000000810900086E
:100100000000000081090008810900088109000839
:1001100000000000000000000000000000000000DF
:100120008109000881090008810900088109000887
:10013000810900080000000000000000000000002D
:10014000000000000000000000000000810900081D
:100150008109000881090008810900088109000857
:10016000810900088109000800000000000000006B
:10017000000000000000000000000000000000007F
:1001800000000000810900080000000000000000DD
:0401900081090008D9
:1001A00010B5054C237833B9044B13B10448AFF3B1
:1001B00000800123237010BD1C00002000000000FF
:1001C000D84A000808B5034B1BB103490348AFF3F5
:1001D000008008BD0000000020000020D84A000870
:1001E00053B94AB9002908BF00281CBF4FF0FF319E
:1001F0004FF0FF3000F06AB9ADF1080C6DE904CEA4
:1002000000F006F8DDF804E0DDE9022304B07047F1
:100210002DE9F047089D0C46002B4ED194468C45A5
:100220008646B2FA82F262D94AB1C2F12003914005
:1002300020FA03F30CFA02FC194300FA02FE4FEA1B
:100240001C471FFA8CF6B1FBF7F44FEA1E4307FB7D
:10025000141143EA014304FB06F199420AD91CEB4D
:10026000030304F1FF3080F01281994240F20F81C4
:10027000023C6344591A1FFA8EF3B1FBF7F007FBF7
:10028000101143EA014300FB06F69E420AD91CEB1B
:10029000030300F1FF3180F0FC809E4240F2F980C0
:1002A000634402389B1B40EA044000211DB1D34047
:1002B0000022C5E90032BDE8F0878B4205D90DB1B7
:1002C000C5E9000100210846F5E7B3FA83F10029EA
:1002D00046D1A34202D39042C0F0F080861A64EB6C
:1002E00003030120002DE6D0C5E90063E3E7002AFF
:1002F00040F09080A1EB0C044FEA1C481FFA8CF7E9
:100300000121B4FBF8F64FEA1E4308FB164443EA0A
:10031000044307FB06F0984208D91CEB030306F1DF
:10032000FF3402D2984200F2CD8026461C1A1FFAF2
:100330008EF3B4FBF8F008FB104443EA044300FBDF
:1003400007F79F4208D91CEB030300F1FF3402D2E8
:100350009F4200F2B0802046DB1B40EA0640A5E742
:10036000C1F120068B4022FA06F71F4320FA06FC53
:1003700004FA01F343EA0C03F44000FA01F8380CE4
:100380004FEA1349B4FBF0FE1FFA87FC00FB1E4442
:1003900049EA04440EFB0CF9A14502FA01F20AD91C
:1003A0003C190EF1FF3A80F08480A14540F2818033
:1003B000AEF1020E3C44A4EB09041FFA83F9B4FB2E
:1003C000F0F300FB134449EA044403FB0CFCA4458E
:1003D00007D93C1903F1FF3067D2A44565D9023B28
:1003E0003C4443EA0E40A0FB0293A4EB0C049C4265
:1003F000CE469C4651D34ED055B1B8EB0E0364EBBC
:100400000C0404FA06F6CB401E43CC40C5E9006458
:10041000002150E7C2F1200320FA03F10CFA02FC9C
:1004200024FA03F394400C434FEA1C4800FA02FEFE
:100430001FFA8CF7B3FBF8F008FB1031230C43EAEA
:10044000014300FB07F1994208D91CEB030300F1BB
:10045000FF362CD299422AD9023863445B1AA4B2DF
:10046000B3FBF8F108FB113344EA034401FB07F343
:10047000A34208D91CEB040401F1FF3613D2A342B6
:1004800011D902396444E41A41EA004139E70446CB
:10049000F0E6084606E7C845AED2B9EB020E63EBBC
:1004A000070C0138A8E73146EDE7034699E73046E7
:1004B000D4E7D6467FE7634402384DE70646234635
:1004C00008460FE7023E634430E700BF704700BFB5
:1004D00080B582B002AF03F0DBF800F041F84FF4D2
:1004E0000061184802F00AFE4FF48051154802F0EE
:1004F00005FE4FF40041134802F000FE02F0F0FE4A
:100500000023019303230093002380220E490F4808
:1005100000F0D8FF002301930223009300238022E0
:100520000B490C4800F0CEFF0023019301230093F8
:10053000002380220849094800F0C4FF01F030F987
:1005400000BFFDE700000240F04A00082106000855
:10055000044B000865060008144B0008410600081B
:1005600080B594B000AF07F1200330220021184677
:1005700004F078FA07F10C0300221A605A609A60BE
:10058000DA601A610023BB60234B1B6C224A43F0E4
:1005900080531364204B1B6C03F08053BB60BB681B
:1005A00000237B601D4B1B6823F440431B4A43F42C
:1005B00000431360194B1B6803F440437B607B6866
:1005C00002233B620123FB6210233B630023BB63D6
:1005D00007F12003184603F05BFB0346002B01D014
:1005E00000F0C3F80F23FB6000233B6100237B6115
:1005F0000023BB610023FB6107F10C0300211846B7
:1006000003F0BEFD0346002B01D000F0AEF800BFA2
:100610005037BD4680BD00BF00380240007000402A
:1006200080B582B000AF7860044B1B78184602F0AA
:10063000F5FF0A2001F07EF800BFF5E73800002042
:1006400080B582B000AF7860054B1B780133DAB219
:10065000034B1A704FF47A7001F06CF800BFF3E7A7
:100660003800002080B582B000AF7860344B1B7832
:10067000022B40D0022B5BDC002B02D0012B1DD0C3
:1006800056E001224FF400612E4802F0E9FD0122FC
:100690004FF400412B4802F003FE01224FF4805139
:1006A000284802F0FDFD4EF6602001F043F8244B8F
:1006B00002221A70244B00221A7040E001224FF4EB
:1006C0000061204802F0ECFD01224FF400411D487A
:1006D00002F0E6FD01224FF480511A4802F0C0FDFD
:1006E00041F2883001F026F8154B00221A70164BA3
:1006F00000221A7023E001224FF40061114802F039
:10070000CFFD01224FF400410E4802F0A9FD012265
:100710004FF480510B4802F0C3FD4EF6602001F00B
:1007200009F8074B01221A70074B00221A7006E0E5
:10073000034B00221A70044BFF221A7000BF95E78A
:1007400039000020000002403800002080B582B04F
:1007500000AF78607B681B68B3F1804F01D102F075
:10076000B9FF00BF0837BD4680BD80B400AF72B688
:1007700000BF00BFFDE7000080B483B000AF0023DE
:100780007B60104B5B6C0F4A43F4804353640D4B0A
:100790005B6C03F480437B607B6800233B60094B08
:1007A0001B6C084A43F080531364064B1B6C03F028
:1007B00080533B603B6800BF0C37BD465DF8047B4F
:1007C000704700BF0038024080B58EB000AF78603F
:1007D0000023FB620023BB620023FB60344B1B6CD5
:1007E000334A43F001031364314B1B6C03F00103E4
:1007F000FB60FB6807F1100207F11403114618466D
:1008000003F08AFE3B6AFB62FB6A002B03D103F014
:100810006FFE786304E003F06BFE03465B007B63CE
:100820007B6B244AA2FB03239B0C013BBB62224B44
:100830004FF080421A60204B40F2E732DA601E4AE5
:10084000BB6A53601C4B00221A611B4B00229A604A
:10085000194B00229A61184803F090FE034687F86E
:10086000333097F83330002B1BD1134803F0E0FEF0
:10087000034687F8333097F83330002B11D11C2012
:1008800003F040F87B680F2B08D8002279681C2001
:1008900003F01CF8094A7B68136002E0012387F823
:1008A000333097F8333018463837BD4680BD00BF27
:1008B0000038024083DE1B433C000020140000206F
:1008C00080B400AF00BFFDE780B400AF00BFFDE71C
:1008D00080B400AF00BFFDE780B400AF00BFFDE70C
:1008E00080B400AF00BFFDE780B400AF00BFBD46DD
:1008F0005DF8047B7047000080B500AF024803F04C
:10090000F9FE00BF80BD00BF3C00002080B400AFF6
:10091000064BD3F88830054A43F47003C2F8883098
:1009200000BFBD465DF8047B704700BF00ED00E0EE
:10093000DFF834D0FFF7EAFF0C480D490D4A0023D9
:1009400002E0D458C4500433C4188C42F9D30A4A84
:100950000A4C002301E013600432A242FBD304F0EE
:1009600089F8FFF7B5FD7047000001200000002066
:100970001C000020644B00081C00002028CA002036
:10098000FEE780B483B000AF78607B6803F10802B3
:100990007B685A607B684FF0FF329A607B6803F196
:1009A00008027B68DA607B6803F108027B681A61E1
:1009B0007B6800221A6000BF0C37BD465DF8047BDF
:1009C000704780B483B000AF78607B6800221A6102
:1009D00000BF0C37BD465DF8047B704780B485B01E
:1009E00000AF786039607B685B68FB603B68FA68E1
:1009F0005A60FB689A683B689A60FB689B683A6833
:100A00005A60FB683A689A603B687A681A617B684A
:100A10001B685A1C7B681A6000BF1437BD465DF81E
:100A2000047B704780B485B000AF786039603B6864
:100A30001B68BB60BB68B3F1FF3F03D17B681B69D8
:100A4000FB600CE07B680833FB6002E0FB685B68DE
:100A5000FB60FB685B681B68BA689A42F6D2FB6869
:100A60005A683B685A603B685B683A689A603B68C2
:100A7000FA689A60FB683A685A603B687A681A615B
:100A80007B681B685A1C7B681A6000BF1437BD4620
:100A90005DF8047B704780B485B000AF78607B68F8
:100AA0001B69FB607B685B687A6892689A607B6808
:100AB0009B687A6852685A60FB685B687A689A42F9
:100AC00003D17B689A68FB685A607B6800221A61D0
:100AD000FB681B685A1EFB681A60FB681B68184697
:100AE0001437BD465DF8047B7047000080B584B0C4
:100AF00000AF786039607B68FB60FB68002B0BD12E
:100B00004FF0500383F31188BFF36F8FBFF34F8F04
:100B1000BB6000BF00BFFDE701F0F6FFFB681A688D
:100B2000FB68DB6BF968096C01FB03F31A44FB6893
:100B30005A60FB6800229A63FB681A68FB689A6037
:100B4000FB681A68FB68DB6B013BF968096C01FB09
:100B500003F31A44FB68DA60FB68FF2283F8442041
:100B6000FB68FF2283F845203B68002B14D1FB680B
:100B70001B69002B1AD0FB681033184601F086F869
:100B80000346002B12D00D4B4FF080521A60BFF37A
:100B90004F8FBFF36F8F09E0FB6810331846FFF7E4
:100BA000F0FEFB6824331846FFF7EBFE01F0DEFF92
:100BB000012318461037BD4680BD00BF04ED00E09C
:100BC00080B58AB002AFF860B9601346FB71FB686C
:100BD000002B0BD14FF0500383F31188BFF36F8FBD
:100BE000BFF34F8F3B6100BF00BFFDE7BB68002B29
:100BF00002D10023FB6104E0FB68BA6802FB03F347
:100C0000FB61FB695033184602F098F8B861BB6984
:100C1000002B0BD0BB6950337B61FA79BB69009321
:100C200013467A69B968F86800F005F8BB69184698
:100C30002037BD4680BD80B584B000AFF860B96094
:100C40007A60FB70BB68002B03D1BB69BA691A607C
:100C500002E0BB697A681A60BB69FA68DA63BB694B
:100C6000BA681A640121B869FFF740FFBB69FA78D6
:100C700083F84C2000BF1037BD4680BD80B58EB0D4
:100C800000AFF860B9607A603B6000237B63FB686B
:100C90003B633B6B002B0BD14FF0500383F3118868
:100CA000BFF36F8FBFF34F8FBB6200BF00BFFDE785
:100CB000BB68002B03D13B6B1B6C002B01D10123C4
:100CC00000E00023002B0BD14FF0500383F3118879
:100CD000BFF36F8FBFF34F8F7B6200BF00BFFDE795
:100CE0003B68022B03D13B6BDB6B012B01D1012352
:100CF00000E00023002B0BD14FF0500383F3118849
:100D0000BFF36F8FBFF34F8F3B6200BF00BFFDE7A4
:100D100001F07EF90346002B02D17B68002B01D144
:100D2000012300E00023002B0BD14FF0500383F38D
:100D30001188BFF36F8FBFF34F8FFB6100BF00BF00
:100D4000FDE701F0E1FE3B6B9A6B3B6BDB6B9A427C
:100D500002D33B68022B29D13A68B968386B00F09E
:100D600043FAF8623B6B5B6A002B10D03B6B243379
:100D7000184600F08BFF0346002B13D03F4B4FF07B
:100D800080521A60BFF34F8FBFF36F8F0AE0FB6A88
:100D9000002B07D0394B4FF080521A60BFF34F8FB2
:100DA000BFF36F8F01F0E2FE012363E07B68002B4D
:100DB00003D101F0DBFE00235CE07B6B002B06D14E
:100DC00007F11403184600F0C5FF01237B6301F00F
:100DD000CDFE00F033FD01F097FE3B6B93F84430FD
:100DE0005BB2B3F1FF3F03D13B6B002283F8442099
:100DF0003B6B93F845305BB2B3F1FF3F03D13B6BE4
:100E0000002283F8452001F0B1FE3A1D07F11403DA
:100E10001146184600F0C4FF0346002B24D1386B5E
:100E200000F0DAFA0346002B18D03B6B10337A68D7
:100E30001146184600F0D8FE386B00F065FA00F055
:100E40000BFD0346002B7FF47CAF0C4B4FF0805220
:100E50001A60BFF34F8FBFF36F8F72E7386B00F0EC
:100E600053FA00F0F9FC6CE7386B00F04DFA00F033
:100E7000F3FC002318463837BD4680BD04ED00E082
:100E800080B58EB000AFF860B9607A603B60FB68F7
:100E90003B633B6B002B0BD14FF0500383F3118866
:100EA000BFF36F8FBFF34F8F7B6200BF00BFFDE7C3
:100EB000BB68002B03D13B6B1B6C002B01D10123C2
:100EC00000E00023002B0BD14FF0500383F3118877
:100ED000BFF36F8FBFF34F8F3B6200BF00BFFDE7D3
:100EE0003B68022B03D13B6BDB6B012B01D1012350
:100EF00000E00023002B0BD14FF0500383F3118847
:100F0000BFF36F8FBFF34F8FFB6100BF00BFFDE7E3
:100F100001F0D2FEEFF311824FF0500383F31188FA
:100F2000BFF36F8FBFF34F8FBA617B61BB69FB6209
:100F30003B6B9A6B3B6BDB6B9A4202D33B68022B99
:100F40002CD13B6B93F8453087F82B303A68B96861
:100F5000386B00F049F997F92B30B3F1FF3F12D10C
:100F60003B6B5B6A002B16D03B6B2433184600F0BA
:100F70008DFE0346002B0ED07B68002B0BD07B68C8
:100F800001221A6007E097F82B300133DBB25AB226
:100F90003B6B83F8452001237B6301E000237B63E7
:100FA000FB6A3B613B6983F3118800BF7B6B18468A
:100FB0003837BD4680BD000080B58EB000AFF86008
:100FC000B9607A603B6000237B63FB683B633B6BEB
:100FD000002B0BD14FF0500383F31188BFF36F8FB9
:100FE000BFF34F8F7B6200BF00BFFDE7BB68002BE4
:100FF00003D13B6B1B6C002B01D1012300E00023CC
:10100000002B0BD14FF0500383F31188BFF36F8F88
:10101000BFF34F8F3B6200BF00BFFDE700F0F8FF5A
:101020000346002B02D17B68002B01D1012300E095
:101030000023002B0BD14FF0500383F31188BFF333
:101040006F8FBFF34F8FFB6100BF00BFFDE701F063
:101050005BFD3B6B9B6BFB62FB6A002B46D03B6BE3
:10106000DB68BB62B968386B00F028F93B68002B7D
:1010700021D1FB6A5A1E3B6B9A633B6B1B68002BAA
:1010800004D101F0E1F802463B6B5A603B6B1B69EF
:10109000002B27D03B6B1033184600F0F7FD0346BA
:1010A000002B1FD04F4B4FF080521A60BFF34F8F71
:1010B000BFF36F8F16E03B6BBA6ADA603B6B5B6A1B
:1010C000002B0FD03B6B2433184600F0DFFD0346A6
:1010D000002B07D0434B4FF080521A60BFF34F8F65
:1010E000BFF36F8F01F042FD012377E07B68002B97
:1010F00003D101F03BFD002370E07B6B002B06D198
:1011000007F11403184600F025FE01237B6301F06C
:101110002DFD00F093FB01F0F7FC3B6B93F844309E
:101120005BB2B3F1FF3F03D13B6B002283F8442055
:101130003B6B93F845305BB2B3F1FF3F03D13B6BA0
:10114000002283F8452001F011FD3A1D07F1140338
:101150001146184600F024FE0346002B31D1386BAF
:1011600000F024F90346002B25D03B6B1B68002BB5
:1011700008D101F0C9FC3B6B5B68184600F066FFC4
:1011800001F0F4FC3B6B24337A681146184600F0FA
:101190002BFD386B00F0B8F800F05EFB0346002B27
:1011A0007FF455AF0F4B4FF080521A60BFF34F8F53
:1011B000BFF36F8F4BE7386B00F0A6F800F04CFBE5
:1011C00045E7386B00F0A0F800F046FB386B00F004
:1011D000EDF80346002B3FF43AAF002318463837AA
:1011E000BD4680BD04ED00E080B586B000AFF8607C
:1011F000B9607A6000237B61FB689B6B3B61FB6895
:101200001B6C002B0DD1FB681B68002B4DD1FB68BC
:101210005B68184600F090FF7861FB6800225A6016
:1012200043E07B68002B19D1FB689868FB681B6C56
:101230001A46B96803F042FCFB689A68FB681B6CAD
:101240001A44FB689A60FB689A68FB685B689A427C
:101250002BD3FB681A68FB689A6026E0FB68D868A5
:10126000FB681B6C1A46B96803F028FCFB68DA6857
:10127000FB681B6C5B421A44FB68DA60FB68DA6847
:10128000FB681B689A4207D2FB685A68FB681B6CB4
:101290005B421A44FB68DA607B68022B05D13B692C
:1012A000002B02D03B69013B3B613B695A1CFB6848
:1012B0009A637B6918461837BD4680BD80B582B0F9
:1012C00000AF786039607B681B6C002B18D07B689E
:1012D000DA687B681B6C1A447B68DA607B68DA68C2
:1012E0007B685B689A4203D37B681A687B68DA6024
:1012F0007B68D9687B681B6C1A46386803F0DEFB94
:1013000000BF0837BD4680BD80B584B000AF7860AF
:1013100001F0FAFB7B6893F84530FB7311E07B68C2
:101320005B6A002B12D07B682433184600F0AEFCB9
:101330000346002B01D000F095FDFB7B013BDBB2A7
:10134000FB7397F90F30002BE9DC00E000BF7B68EE
:10135000FF2283F8452001F009FC01F0D5FB7B68F2
:1013600093F84430BB7311E07B681B69002B12D0EB
:101370007B681033184600F089FC0346002B01D02F
:1013800000F070FDBB7B013BDBB2BB7397F90E3005
:10139000002BE9DC00E000BF7B68FF2283F84420DB
:1013A00001F0E4FB00BF1037BD4680BD80B584B0BE
:1013B00000AF786001F0A8FB7B689B6B002B02D12B
:1013C0000123FB6001E00023FB6001F0CFFBFB6821
:1013D00018461037BD4680BD80B584B000AF786038
:1013E00001F092FB7B689A6B7B68DB6B9A4202D1BF
:1013F0000123FB6001E00023FB6001F0B7FBFB6809
:1014000018461037BD4680BD80B485B000AF786007
:1014100039600023FB6014E00F4AFB6852F8333058
:10142000002B0BD10C49FB683A6841F833200A4A7B
:10143000FB68DB0013447A685A6006E0FB680133FE
:10144000FB60FB68072BE7D900BF00BF1437BD4620
:101450005DF8047B704700BF8400002080B586B033
:1014600000AFF860B9607A60FB687B6101F04CFB0B
:101470007B6993F844305BB2B3F1FF3F03D17B69E2
:10148000002283F844207B6993F845305BB2B3F1C6
:10149000FF3F03D17B69002283F8452001F066FB02
:1014A0007B699B6B002B06D17B6924337A68B96812
:1014B000184600F0BFFB7869FFF726FF00BF18371A
:1014C000BD4680BD80B58CB004AFF860B9603B60AC
:1014D0001346FB80FB889B00184601F02FFC7861C7
:1014E0007B69002B0ED0582001F028FCF861FB69C5
:1014F000002B03D0FB697A691A6305E0786901F073
:10150000E5FC01E00023FB61FB69002B13D0FA88A6
:1015100000230393FB690293FB6A0193BB6A009368
:101520003B68B968F86800F00EF8F86900F094F8C4
:101530000123BB6102E04FF0FF33BB61BB6918467A
:101540002037BD4680BD80B588B000AFF860B96077
:101550007A603B603B6B186B7B689B001A46A52149
:1015600003F080FA3B6B1A6B7B6803F18043013B0D
:101570009B001344BB61BB6923F00703BB61BB69DC
:1015800003F00703002B0BD04FF0500383F31188B7
:10159000BFF36F8FBFF34F8F7B6100BF00BFFDE7CD
:1015A0000023FB6112E0BA68FB69134419783A6BB7
:1015B000FB69134434330A461A70BA68FB69134452
:1015C0001B78002B06D0FB690133FB61FB69092BFB
:1015D000E9D900E000BF3B6B002283F83D20BB6AE5
:1015E000042B01D90423BB623B6BBA6ADA623B6B02
:1015F000BA6A9A643B6B0022DA643B6B0433184688
:10160000FFF7DFF93B6B18331846FFF7DAF93B6B4E
:101610003A6B1A61BB6AC3F105023B6B9A613B6B83
:101620003A6B5A623B6B00221A653B6B002283F8CF
:1016300054203A68F968B86901F05CF902463B6BDE
:101640001A60FB6A002B02D0FB6A3A6B1A6000BF7B
:101650002037BD4680BD000080B582B000AF786005
:1016600001F052FA2C4B1B6801332B4A13602B4BB1
:101670001B68002B09D1294A7B681360264B1B6825
:10168000012B10D100F012FC0DE0254B1B68002B44
:1016900009D1224B1B68DA6A7B68DB6A9A4202D85E
:1016A0001E4A7B6813601F4B1B6801331D4A136081
:1016B0001C4B1A687B681A647B68DB6A01229A40BB
:1016C000194B1B681343184A13607B68DA6A134688
:1016D0009B0013449B00154A1A447B680433194647
:1016E0001046FFF77BF901F041FA0D4B1B68002B08
:1016F0000ED00A4B1B68DA6A7B68DB6A9A4207D213
:101700000B4B4FF080521A60BFF34F8FBFF36F8FB8
:1017100000BF0837BD4680BD9C010020C4000020EA
:10172000A8010020B8010020A4010020C80000206A
:1017300004ED00E080B584B000AF78600023FB606A
:101740007B68002B18D0144B1B68002B0BD04FF07C
:10175000500383F31188BFF36F8FBFF34F8FBB60CC
:1017600000BF00BFFDE700F069F80021786800F0D5
:101770007FFD00F071F8F860FB68002B07D1074B84
:101780004FF080521A60BFF34F8FBFF36F8F00BFCF
:101790001037BD4680BD00BFC401002004ED00E04D
:1017A00080B586B002AF1F4B019300230093002346
:1017B00080221D491D48FFF785FEF860FB68012B5C
:1017C00002D100F0BBFDF860FB68012B16D14FF091
:1017D000500383F31188BFF36F8FBFF34F8FBB604C
:1017E00000BF134B4FF0FF321A60124B01221A60F8
:1017F000114B00221A6001F0F7F80FE0FB68B3F11B
:10180000FF3F0BD14FF0500383F31188BFF36F8F6D
:10181000BFF34F8F7B6000BF00BFFDE700BF1037F5
:10182000BD4680BDC0010020244B00087D1E00087D
:10183000BC010020A8010020A001002080B400AF5E
:10184000044B1B680133034A136000BFBD465DF8BB
:10185000047B7047C401002080B584B000AF002332
:10186000FB600023BB60424B1B68002B0BD14FF089
:10187000500383F31188BFF36F8FBFF34F8F3B602B
:1018800000BF00BFFDE701F03FF9394B1B68013B8A
:10189000374A1360364B1B68002B61D1354B1B68F0
:1018A000002B5DD02EE0344BDB68DB68FB60FB680F
:1018B00018331846FFF7EFF8FB6804331846FFF7B4
:1018C000EAF8FB68DB6A01229A402C4B1B68134341
:1018D0002A4A1360FB68DA6A13469B0013449B0094
:1018E000274A1A44FB68043319461046FFF776F876
:1018F000FB68DA6A234B1B68DB6A9A4202D3224BED
:1019000001221A601C4B1B68002BCCD1FB68002BFA
:1019100001D000F057FB1D4B1B687B607B68002BE0
:1019200010D000F047F80346002B02D0164B0122DE
:101930001A607B68013B7B607B68002BF1D1134B05
:1019400000221A60104B1B68002B09D00123BB60DA
:101950000F4B4FF080521A60BFF34F8FBFF36F8F62
:1019600001F004F9BB6818461037BD4680BD00BFC2
:10197000C40100209C0100205C010020A401002083
:10198000C8000020C4000020B0010020AC010020ED
:1019900004ED00E080B483B000AF054B1B687B60B2
:1019A0007B6818460C37BD465DF8047B704700BF66
:1019B000A001002080B586B000AF00237B61514BB1
:1019C0001B68002B40F08E804F4B1B6801333B613E
:1019D0004D4A3B6913603B69002B21D14B4B1B687F
:1019E0001B68002B0BD04FF0500383F31188BFF31B
:1019F0006F8FBFF34F8F3B6000BF00BFFDE7434BCE
:101A00001B68FB60424B1B68404A1360404AFB68FE
:101A10001360404B1B6801333E4A136000F0D2FA5A
:101A20003D4B1B683A699A424DD3384B1B681B6883
:101A3000002B01D1012300E00023002B04D0364B02
:101A40004FF0FF321A603EE0304B1B68DB68DB680A
:101A5000BB60BB685B687B603A697B689A4203D273
:101A60002D4A7B6813602EE0BB6804331846FFF7ED
:101A700012F8BB689B6A002B04D0BB681833184669
:101A8000FFF709F8BB68DB6A01229A40234B1B6809
:101A90001343224A1360BB68DA6A13469B0013445F
:101AA0009B001F4A1A44BB68043319461046FEF7D0
:101AB00095FFBB68DA6A1B4B1B68DB6A9A42B4D39A
:101AC00001237B61B1E7174B1B68DA6A144913469F
:101AD0009B0013449B000B441B68012B07D9012377
:101AE0007B6104E0104B1B6801330F4A13600F4BFE
:101AF0001B68002B01D001237B617B6918461837D6
:101B0000BD4680BDC4010020A0010020540100207A
:101B100058010020B4010020BC010020A4010020D5
:101B2000C8000020C4000020AC010020B00100204B
:101B300080B487B000AF274B1B68002B03D0264B27
:101B400001221A6040E0244B00221A60234B1B68DC
:101B5000FB60FB68B3FA83F3FB72FB7AC3F11F03EC
:101B60007B611F497A6913469B0013449B000B4419
:101B70001B68002B0BD14FF0500383F31188BFF388
:101B80006F8FBFF34F8F7B6000BF00BFFDE77A69A7
:101B900013469B0013449B00114A13443B613B696D
:101BA0005B685A683B695A603B695A683B6908330D
:101BB0009A4204D13B695B685A683B695A603B6949
:101BC0005B68DB68074A136000BF1C37BD465DF8E1
:101BD000047B7047C4010020B0010020A401002054
:101BE000C8000020C400002080B584B000AF786039
:101BF00039607B68002B0BD14FF0500383F31188C1
:101C0000BFF36F8FBFF34F8FFB6000BF00BFFDE7D7
:101C1000074B1B68183319467868FEF703FF01214C
:101C2000386800F025FB00BF1037BD4680BD00BFFF
:101C3000C400002080B586B000AFF860B9607A605B
:101C4000FB68002B0BD14FF0500383F31188BFF3D7
:101C50006F8FBFF34F8F7B6100BF00BFFDE70A4B63
:101C60001B6818331946F868FEF7B8FE7B68002B2E
:101C700002D04FF0FF33BB607968B86800F0F8FA23
:101C800000BF1837BD4680BDC400002080B586B0B7
:101C900000AF78607B68DB68DB683B613B69002BE9
:101CA0000BD14FF0500383F31188BFF36F8FBFF355
:101CB0004F8FFB6000BF00BFFDE73B69183318463C
:101CC000FEF7E9FE1D4B1B68002B1CD13B6904335A
:101CD0001846FEF7E0FE3B69DB6A01229A40184B8A
:101CE0001B681343164A13603B69DA6A13469B006C
:101CF00013449B00134A1A443B69043319461046A7
:101D0000FEF76CFE05E03B69183319460E48FEF7F6
:101D100065FE3B69DA6A0D4B1B68DB6A9A4205D99E
:101D200001237B610A4B01221A6001E000237B61E1
:101D30007B6918461837BD4680BD00BFC40100202E
:101D4000A4010020C80000205C010020C400002085
:101D5000B001002080B485B000AF78607B68002BB4
:101D60000BD14FF0500383F31188BFF36F8FBFF394
:101D70004F8FFB6000BF00BFFDE7074B1A687B6811
:101D80001A60064B1A687B685A6000BF1437BD465C
:101D90005DF8047B704700BFB4010020A001002063
:101DA00080B586B000AF786039607B68002B0BD1BE
:101DB0004FF0500383F31188BFF36F8FBFF34F8F42
:101DC000FB6000BF00BFFDE73B68002B0BD14FF06D
:101DD000500383F31188BFF36F8FBFF34F8FBB6046
:101DE00000BF00BFFDE700F08FFE1C4B1B683B618E
:101DF0003B681B68B3F1FF3F02D100237B6126E003
:101E00007B681A68164B1B689A4207D07B685B6830
:101E10003A699A4202D301237B6118E07B685B68D0
:101E20003A69D21A3B681B689A420ED23B681A681C
:101E30007B6859683B69CB1A1A443B681A6078681A
:101E4000FFF788FF00237B6101E001237B6100F045
:101E50008DFE7B6918461837BD4680BDA001002065
:101E6000B401002080B400AF034B01221A6000BF10
:101E7000BD465DF8047B7047B001002080B582B09C
:101E800000AF786000F052F8064B1B68012BF9D9BF
:101E9000054B4FF080521A60BFF34F8FBFF36F8F27
:101EA000F0E700BFC800002004ED00E080B582B07C
:101EB00000AF00237B600CE07A6813469B0013445C
:101EC0009B00124A13441846FEF75BFD7B68013302
:101ED0007B607B68042BEFD90D48FEF752FD0D485F
:101EE000FEF74FFD0C48FEF74CFD0C48FEF749FD90
:101EF0000B48FEF746FD0B4B054A1A600A4B054A94
:101F00001A6000BF0837BD4680BD00BFC800002072
:101F10002C010020400100205C0100207001002005
:101F200088010020540100205801002080B582B0B3
:101F300000AF28E0FFF782FC174B1B68002B0CBF9B
:101F400001230023DBB27B60FFF786FC7B68002B5C
:101F500019D100F0D9FD104BDB68DB683B603B68B2
:101F600004331846FEF797FD0C4B1B68013B0B4AE8
:101F700013600B4B1B68013B094A136000F0F6FD30
:101F8000386800F00FF8064B1B68002BD2D100BF59
:101F900000BF0837BD4680BD700100209C010020B5
:101FA0008401002080B582B000AF78607B681B6B35
:101FB000184600F08BFF786800F088FF00BF0837F4
:101FC000BD4680BD80B483B000AF0F4B1B681B685B
:101FD000002B01D1012300E00023002B04D00B4B88
:101FE0004FF0FF321A6008E0074B1B68DB68DB68C4
:101FF0007B607B685B68054A136000BF0C37BD4699
:102000005DF8047B704700BF54010020BC01002034
:1020100080B483B000AF0B4B1B68002B02D10123AF
:102020007B6008E0084B1B68002B02D102237B6019
:1020300001E000237B607B6818460C37BD465DF8E5
:10204000047B7047A8010020C401002080B584B043
:1020500000AF78607B68FB607B68002B62D0FB6818
:10206000DA6A324B1B68DB6A9A425BD2FB689B6977
:10207000002B06DB2D4B1B68DB6AC3F10502FB68F6
:102080009A61FB685969FB68DA6A13469B0013443E
:102090009B00274A1344994201D1012300E0002309
:1020A000002B3AD0FB6804331846FEF7F4FC0346D5
:1020B000002B15D1FB68DA6A1D4913469B001344B7
:1020C0009B000B441B68002B0AD1FB68DB6A0122D2
:1020D00002FA03F3DA43174B1B681340154A1360E7
:1020E000124B1B68DA6AFB68DA62FB68DB6A012262
:1020F0009A40104B1B6813430E4A1360FB68DA6A60
:1021000013469B0013449B00094A1A44FB6804339E
:1021100019461046FEF762FC04E0044B1B68DA6ABD
:10212000FB68DA6200BF1037BD4680BDC4000020E6
:10213000C8000020A401002080B586B000AF786000
:102140007B683B6100237B617B68002B70D03B4B3D
:102150001B683A699A420BD04FF0500383F3118801
:10216000BFF36F8FBFF34F8FFB6000BF00BFFDE772
:102170003B69DB6C002B0BD14FF0500383F31188CC
:10218000BFF36F8FBFF34F8FBB6000BF00BFFDE792
:102190003B69DB6C5A1E3B69DA643B69DA6A3B696E
:1021A0009B6C9A4244D03B69DB6C002B40D13B696D
:1021B00004331846FEF76FFC0346002B15D13B692C
:1021C000DA6A1F4913469B0013449B000B441B68AB
:1021D000002B0AD13B69DB6A012202FA03F3DA43DE
:1021E000184B1B681340174A13603B699A6C3B6994
:1021F000DA623B69DB6AC3F105023B699A613B69BC
:10220000DB6A01229A400F4B1B6813430D4A13608F
:102210003B69DA6A13469B0013449B00084A1A4440
:102220003B69043319461046FEF7D8FB01237B6156
:102230007B6918461837BD4680BD00BFC40000202A
:10224000C8000020A401002080B400AF074B1B6829
:10225000002B04D0054B1B68DA6C0132DA64034BA7
:102260001B681846BD465DF8047B7047C40000201B
:1022700080B584B000AF78603960294B1B68FB6083
:10228000284B1B6804331846FEF705FC0346002B59
:102290000BD1244B1B68DB6A012202FA03F3DA43F9
:1022A000214B1B681340204A13607B68B3F1FF3F4A
:1022B0000AD13B68002B07D01A4B1B680433194620
:1022C0001A48FEF78BFB26E0FA687B681344BB6074
:1022D000144B1B68BA685A60BA68FB689A4209D204
:1022E000134B1A680F4B1B68043319461046FEF750
:1022F00099FB10E00F4B1A680A4B1B680433194610
:102300001046FEF78FFB0C4B1B68BA689A4202D24C
:10231000094ABB68136000BF1037BD4680BD00BFCF
:10232000A0010020C4000020A4010020880100209A
:102330005801002054010020BC01002080B584B069
:1023400002AF00237B6000F09FFA124B1B68002B4A
:102350000BD0114B01930223009300234FF48072A2
:102360000E490F48FFF7AEF878607B68002B0BD161
:102370004FF0500383F31188BFF36F8FBFF34F8F7C
:102380003B6000BF00BFFDE77B6818460837BD46CD
:1023900080BD00BFF8010020FC0100202C4B00088C
:1023A000C524000880B58AB000AFF860B9607A60D3
:1023B0003B6000237B62FB68002B0BD14FF0500386
:1023C00083F31188BFF36F8FBFF34F8F3B6200BF62
:1023D00000BFFDE7194B1B68002B2AD0BB687B614F
:1023E0007B68BB61FB68FB61BB68052B18DCFFF7F2
:1023F0000FFE0346022B09D1104B186807F1140198
:1024000000233A6BFEF73AFC786212E00B4B186837
:1024100007F1140100230022FEF730FC786208E087
:10242000064B186807F1140100233A68FEF728FDEF
:1024300078627B6A18462837BD4680BDF8010020C7
:1024400080B588B002AF786039601D4B1B68DB68CF
:10245000DB687B617B6904331846FEF71CFB7B69F4
:10246000DB69012B23D17B699A697B68D1187B6872
:102470003A68786900F0CCF80346002B17D00023A7
:10248000009300237A6800217869FFF78BFF386199
:102490003B69002B0BD14FF0500383F31188BFF33E
:1024A0006F8FBFF34F8FFB6000BF00BFFDE77B69FD
:1024B0005B6A7869984700BF1837BD4680BD00BF8A
:1024C000F001002080B584B000AF786007F1080308
:1024D000184600F059F8F860BB681946F86800F033
:1024E00005F800F0D7F800BFF0E7000080B584B031
:1024F00000AF78603960FFF7A1F907F108031846CB
:1025000000F066F8F860BB68002B30D13B68002B08
:102510000AD17A68FB689A4206D8FFF79DF9F968F4
:102520007868FFF78DFF24E03B68002B08D0134B41
:102530001B681B68002B0CBF01230023DBB23B6030
:102540000F4B18687A68FB68D31A3A681946FEF789
:1025500085FFFFF781F90346002B0AD1094B4FF0A5
:1025600080521A60BFF34F8FBFF36F8F01E0FFF708
:1025700073F900BF1037BD4680BD00BFF4010020D5
:10258000F801002004ED00E080B485B000AF786071
:102590000E4B1B681B68002B0CBF01230023DBB212
:1025A0001A467B681A607B681B68002B05D1074BB5
:1025B0001B68DB681B68FB6001E00023FB60FB68B5
:1025C00018461437BD465DF8047B7047F0010020C3
:1025D00080B584B000AF7860FFF7DCF9F8600B4B92
:1025E0001B68FA689A4205D200F0ECF87B68012279
:1025F0001A6002E07B6800221A60044AFB681360DC
:10260000FB6818461037BD4680BD00BF00020020A1
:1026100080B586B000AFF860B9607A603B60002397
:102620007B61FB68BA685A60FB68FA681A61BA682D
:102630007B689A4212D87A683B68D21AFB689B6919
:102640009A4202D301237B611BE0104B1A68FB689E
:10265000043319461046FEF7E5F912E07A683B6844
:102660009A4206D2BA683B689A4202D301237B6140
:1026700007E0074B1A68FB68043319461046FEF75B
:10268000D1F97B6918461837BD4680BDF40100209A
:10269000F001002080B58CB002AF80E0BB68002B59
:1026A0007DDB3B697B627B6A5B69002B04D07B6AC4
:1026B00004331846FEF7EFF93B1D1846FFF788FF75
:1026C0003862BB68092B67D801A252F823F000BF1B
:1026D000F9260008F9260008F926000899270008BD
:1026E0005727000891270008F9260008F926000856
:1026F0009927000857270008FA687B6A9B69D11858
:10270000FB683A6A786AFFF783FF0346002B45D0DF
:102710007B6A5B6A786A98477B6ADB69012B3DD1EB
:10272000FA687B6A9B691A44002300930023002106
:10273000786AFFF737FEF861FB69002B2ED14FF066
:10274000500383F31188BFF36F8FBFF34F8FBB61CB
:1027500000BF00BFFDE7FA687B6A9A617B6A9B69EC
:10276000002B0BD14FF0500383F31188BFF36F8F11
:10277000BFF34F8F7B6100BF00BFFDE77B6A9A69A3
:102780003B6AD1183B6A3A6A786AFFF741FF06E074
:10279000786A00F09BFB02E000BF00E000BF084B3E
:1027A000186807F1080100230022FEF705FC034624
:1027B000002B7FF473AF00BF00BF2837BD4680BD3C
:1027C000F801002080B588B002AF46E02C4B1B68B2
:1027D000DB681B683B612A4B1B68DB68DB68FB60BE
:1027E000FB6804331846FEF756F9FB685B6AF86825
:1027F0009847FB68DB69012B2FD1FB689B693A691D
:102800001344BB60BA683B699A420ED9FB68BA6848
:102810005A60FB68FA681A61194B1A68FB6804333E
:1028200019461046FEF7FEF817E000230093002338
:102830003A690021F868FFF7B5FD78607B68002BE6
:102840000BD14FF0500383F31188BFF36F8FBFF3A9
:102850004F8F3B6000BF00BFFDE7094B1B681B6843
:10286000002BB3D1064B1B687B61064B1B68044AE7
:102870001360044A7B69136000BF1837BD4680BDF2
:10288000F0010020F401002080B500AF00F03CF919
:10289000124B1B68002B1DD11148FEF772F811482E
:1028A000FEF76FF8104B0E4A1A60104B0D4A1A6073
:1028B00000220C210A20FEF783F90346074A136021
:1028C000064B1B68002B05D0044B1B6808491846B3
:1028D000FEF79AFD00F04AF900BF80BDF801002024
:1028E000C8010020DC010020F0010020F4010020DC
:1028F000344B000880B485B000AFF860B9607A60EE
:10290000FB68043BFB60FB684FF080721A60FB6859
:10291000043BFB60BB6823F00102FB681A60FB68A4
:10292000043BFB600C4AFB681A60FB68143BFB60CD
:102930007A68FB681A60FB68043BFB60FB686FF019
:1029400002021A60FB68203BFB60FB6818461437E4
:10295000BD465DF8047B70475D29000880B483B0F4
:1029600000AF0E4B1B68B3F1FF3F0BD04FF050038D
:1029700083F31188BFF36F8FBFF34F8F7B6000BF6E
:1029800000BFFDE74FF0500383F31188BFF36F8F53
:10299000BFF34F8F3B6000BF00BFFDE70400002086
:1029A000074B19680868B0E8F04F80F30988BFF357
:1029B0006F8F4FF0000080F311887047AFF30080F5
:1029C000C400002000BF00BF06480068006880F314
:1029D000088862B661B6BFF34F8FBFF36F8F00DF19
:1029E00000BF00BF08ED00E080B586B000AF3D4BF2
:1029F0001B683D4A93420BD14FF0500383F311887B
:102A0000BFF36F8FBFF34F8F3B6100BF00BFFDE788
:102A1000344B1B68354A93420BD14FF0500383F37C
:102A20001188BFF36F8FBFF34F8FFB6000BF00BFF4
:102A3000FDE72F4B7B617B691B78DBB2BB607B6959
:102A4000FF221A707B691B78DBB2FB71FB79DBB26A
:102A500003F05003DAB2274B1A70274B07221A6093
:102A600009E0254B1B68013B234A1360FB79DBB26D
:102A70005B00DBB2FB71FB79DBB203F08003802BE0
:102A8000EFD01D4B1B681B021B4A13601A4B1B68BF
:102A900003F4E063184A1360BB68DAB27B691A700A
:102AA000164B1B68154A43F470031360134B1B68E5
:102AB000124A43F07043136000F0D8F8104B002224
:102AC0001A6000F0EFF80F4B1B680E4A43F04043CA
:102AD0001360FFF779FFFFF741FF0023184618370F
:102AE000BD4680BD00ED00E071C20F4170C20F41D4
:102AF00000E400E0040200200802002020ED00E0D5
:102B00000400002034EF00E080B483B000AF4FF049
:102B1000500383F31188BFF36F8FBFF34F8F7B6038
:102B200000BF104B1B6801330E4A13600D4B1B682E
:102B3000012B10D10C4B1B68DBB2002B0BD04FF0DC
:102B4000500383F31188BFF36F8FBFF34F8F3B6048
:102B500000BF00BFFDE700BF0C37BD465DF8047B3A
:102B6000704700BF0400002004ED00E080B483B093
:102B700000AF124B1B68002B0BD14FF0500383F3B7
:102B80001188BFF36F8FBFF34F8F7B6000BF00BF13
:102B9000FDE70A4B1B68013B084A1360074B1B68A3
:102BA000002B05D100233B603B6883F3118800BFF5
:102BB00000BF0C37BD465DF8047B70470400002061
:102BC000EFF30980BFF36F8F154B1A681EF0100FDB
:102BD00008BF20ED108A20E9F04F10604DF8043D49
:102BE0004FF0500080F31188BFF34F8FBFF36F8F0A
:102BF000FEF79EFF4FF0000080F3118808BC1968B3
:102C00000868B0E8F04F1EF0100F08BFB0EC108A53
:102C100080F30988BFF36F8F704700BFAFF3008068
:102C2000C400002000BF00BF80B582B000AF4FF0ED
:102C3000500383F31188BFF36F8FBFF34F8F7B6017
:102C400000BFFEF7B7FE0346002B03D0064B4FF044
:102C500080521A6000233B603B6883F3118800BFF9
:102C600000BF0837BD4680BD04ED00E080B400AF72
:102C7000084B1B68084AA2FB03239B09074A013B38
:102C80001360074B07221A6000BFBD465DF8047B46
:102C9000704700BF00000020D34D621014E000E038
:102CA00010E000E0DFF80C00016841F47001016001
:102CB000704700BF88ED00E080B485B000AFEFF34F
:102CC0000583FB60FB680F2B15D9184AFB6813447A
:102CD0001B78FB72164B1B78FA7A9A420BD24FF094
:102CE000500383F31188BFF36F8FBFF34F8F7B6067
:102CF00000BF00BFFDE70F4B1B6803F4E0620E4B03
:102D00001B689A420BD94FF0500383F31188BFF32D
:102D10006F8FBFF34F8F3B6000BF00BFFDE700BF69
:102D20001437BD465DF8047B704700BFF0E300E058
:102D3000040200200CED00E00802002080B58AB0FB
:102D400000AF78600023FB61FEF778FD5A4B1B68EB
:102D5000002B01D100F016F9584B1A687B6813401C
:102D6000002B40F090807B68002B1ED008227B68EF
:102D700013447B607B6803F00703002B15D07B684E
:102D800023F0070308337B607B6803F00703002B05
:102D90000BD04FF0500383F31188BFF36F8FBFF355
:102DA0004F8F7B6100BF00BFFDE77B68002B6AD0BF
:102DB000434B1B687A689A4265D8424B3B62414B51
:102DC0001B687B6204E07B6A3B627B6A1B687B62F8
:102DD0007B6A5B687A689A4203D97B6A1B68002B1E
:102DE000F1D1354B1B687A6A9A424CD03B6A1B681A
:102DF00008221344FB617B6A1A683B6A1A607B6A8B
:102E00005A687B68D21A08235B009A4220D97A6AF2
:102E10007B681344BB61BB6903F00703002B0BD035
:102E20004FF0500383F31188BFF36F8FBFF34F8FC1
:102E30003B6100BF00BFFDE77B6A5A687B68D21A1E
:102E4000BB695A607B6A7A685A60B86900F0FCF81E
:102E50001B4B1A687B6A5B68D31A194A1360184BBC
:102E60001A68194B1B689A4203D2154B1B68164A05
:102E700013607B6A5A68114B1B681A437B6A5A605D
:102E80007B6A00221A60FEF7E7FCFB6903F0070388
:102E9000002B0BD04FF0500383F31188BFF36F8FDB
:102EA000BFF34F8FFB6000BF00BFFDE7FB69184613
:102EB0002837BD4680BD00BF14CA002020CA0020AC
:102EC00018CA00200CCA00201CCA002080B586B099
:102ED00000AF78607B687B617B68002B4AD0082359
:102EE0005B427A6913447B617B693B613B695A6849
:102EF000224B1B681340002B0BD14FF0500383F380
:102F00001188BFF36F8FBFF34F8FFB6000BF00BF0F
:102F1000FDE73B691B68002B0BD04FF0500383F398
:102F20001188BFF36F8FBFF34F8FBB6000BF00BF2F
:102F3000FDE73B695A68114B1B681340002B19D001
:102F40003B691B68002B15D13B695A680B4B1B680A
:102F5000DB431A403B695A60FEF770FC3B695A68D4
:102F6000074B1B681344064A1360386900F06CF87D
:102F7000FEF772FC00BF1837BD4680BD20CA002096
:102F800018CA002080B485B000AF4FF44843BB603E
:102F9000274BFB60FB6803F00703002B0CD0FB689A
:102FA0000733FB60FB6823F00703FB60BA68FB682C
:102FB000D31A1F4A1344BB60FB687B601D4A7B68C1
:102FC00013601C4B00225A607B68BA681344FB6094
:102FD0000822FB689B1AFB60FB6823F00703FB6079
:102FE000FB68154A1360144B1B6800225A60124B91
:102FF0001B6800221A607B683B603B68FA68D21A43
:103000003B685A600C4B1A683B681A603B685B6807
:103010000A4A13603B685B68094A1360094B4FF02A
:1030200000421A6000BF1437BD465DF8047B70474C
:103030000C0200200CCA002014CA00201CCA002068
:1030400018CA002020CA002080B485B000AF786084
:10305000284BFB6002E0FB681B68FB60FB681B6899
:103060007A689A42F7D8FB68BB60FB685B68BA680D
:1030700013447A689A4208D1FB685A687B685B6897
:103080001A44FB685A60FB687B607B68BB607B68A6
:103090005B68BA681A44FB681B689A4218D1FB68DF
:1030A0001A68154B1B689A420DD07B685A68FB68FA
:1030B0001B685B681A447B685A60FB681B681A6867
:1030C0007B681A6008E00C4B1A687B681A6003E0A2
:1030D000FB681A687B681A60FA687B689A4202D0BB
:1030E000FB687A681A6000BF1437BD465DF8047B40
:1030F000704700BF0CCA002014CA002080B58EB0F3
:1031000000AF78600B467B807B684E4A934269D063
:103110004C4A934200F292804B4A934253D04A4A1F
:10312000934200F28B80494A93423DD0474A9342F2
:1031300000F28480464A934227D0454A93427DD884
:10314000444A934203D0444A93420FD076E000238E
:103150003B62424B1B6B414A43F0010313633F4BFD
:103160001B6B03F001033B623B6A4AE00023FB61F7
:103170003A4B1B6B394A43F002031363374B1B6B0B
:1031800003F00203FB61FB693BE00023BB61334BAF
:103190001B6B324A43F004031363304B1B6B03F089
:1031A0000403BB61BB692CE000237B612B4B1B6BD1
:1031B0002A4A43F008031363284B1B6B03F00803F0
:1031C0007B617B691DE000233B61244B1B6B234A21
:1031D00043F010031363214B1B6B03F010033B619F
:1031E0003B690EE00023FB601C4B1B6B1B4A43F04A
:1031F00080031363194B1B6B03F08003FB60FB68B8
:1032000000BF7B8800221946786800F00DFD07F1A9
:10321000240300221A605A609A60DA601A617B887F
:103220007B620123BB620023FB6200233B6307F147
:1032300024031946786800F073FB00E000BF3837BC
:10324000BD4680BD001C024000100240000C024040
:103250000008024000000240000402400038024022
:1032600080B582B000AF78600B467B8013467B70E0
:103270007B78012B02D0022B07D00DE07B88012246
:103280001946786800F0D0FC06E07B8800221946D9
:10329000786800F0C9FC00BF00BF0837BD4680BD9C
:1032A00080B582B000AF78600B467B8013467B70A0
:1032B0007B78012B02D0022B07D00DE07B88002207
:1032C0001946786800F0B0FC06E07B8801221946B8
:1032D000786800F0A9FC00BF00BF0837BD4680BD7C
:1032E00080B592B000AF0023FB62394B1B6B384AAC
:1032F00043F002031363364B1B6B03F00203FB62C4
:10330000FB6A00BF07F1340300221A605A609A601A
:10331000DA601A6103237B630123BB630023FB6331
:1033200000233B6407F1340319462A4800F0F8FAF9
:1033300000220221274800F077FC002201212548C5
:1033400000F072FC00237B61214B1B6B204A43F091
:10335000020313631E4B1B6B03F002037B617B694B
:1033600000BF4FF47E737B630123BB630023FB63C9
:1033700000233B6407F134031946164800F0D0FAE5
:1033800000224FF40071134800F04EFC00224FF46D
:103390008071104800F048FC002280210D4800F0A8
:1033A00043FC002240210B4800F03EFC002220217B
:1033B000084800F039FC00221021064800F034FCD7
:1033C00000220821034800F02FFC4837BD4680BD8D
:1033D000003802400004024080B582B000AF0346CE
:1033E0000A46FB711346BB71FB79092B00F20D8174
:1033F00000224FF40071874800F016FC00224FF4C1
:103400008071844800F010FC00228021814800F087
:103410000BFC002240217F4800F006FC0022202106
:103420007C4800F001FC002210217A4800F0FCFBEF
:1034300000220821774800F0F7FBBB79012B02D06E
:10344000022B71D0E1E0FB79734AD35C03F00103F6
:10345000002B0CBF01230023DBB21A464FF400718E
:103460006C4800F0E1FBFB796B4AD35C03F002038C
:10347000002B0CBF01230023DBB21A464FF48071EE
:10348000644800F0D1FBFB79634AD35C03F004038A
:10349000002B0CBF01230023DBB21A4680215D48BC
:1034A00000F0C2FBFB795C4AD35C03F00803002BFD
:1034B0000CBF01230023DBB21A464021554800F01F
:1034C000B3FBFB79544AD35C03F01003002B0CBF11
:1034D00001230023DBB21A4620214E4800F0A4FB52
:1034E000FB794D4AD35C03F02003002B0CBF012372
:1034F0000023DBB21A461021464800F095FBFB7909
:10350000454AD35C03F04003002B0CBF012300238A
:10351000DBB21A4608213F4800F086FB0122022157
:103520003C4800F081FB70E0FB793B4AD35C03F040
:103530000103002B0CBF01230023DBB21A464FF41A
:103540000071344800F070FBFB79334AD35C03F020
:103550000203002B0CBF01230023DBB21A464FF4F9
:1035600080712C4800F060FBFB792B4AD35C03F0A0
:103570000403002B0CBF01230023DBB21A46802179
:10358000244800F051FBFB79234AD35C03F0080385
:10359000002B0CBF01230023DBB21A4640211D483B
:1035A00000F042FBFB791C4AD35C03F01003002BB4
:1035B0000CBF01230023DBB21A462021154800F07E
:1035C00033FBFB79144AD35C03F02003002B0CBFC0
:1035D00001230023DBB21A4610210E4800F024FB21
:1035E000FB790D4AD35C03F04003002B0CBF012391
:1035F0000023DBB21A460821064800F015FB012221
:103600000121044800F010FB00BF00BF0837BD4691
:1036100080BD00BF000402400800002080B584B0D7
:1036200000AF0346FB71FB79632B28D8FA79164B60
:10363000A3FB0213D9080B469B000B445B00D31A73
:10364000FB73FB79104AA2FB0323DB08BB73012148
:103650000E4800F002FBBB7B01211846FFF7BCFEC1
:10366000052000F057F80221084800F0F6FAFB7B2D
:1036700002211846FFF7B0FE052000F04BF800BF0E
:103680001037BD4680BD00BFCDCCCCCC000402407D
:1036900080B500AF0E4B1B680D4A43F400731360F6
:1036A0000B4B1B680A4A43F480631360084B1B688A
:1036B000074A43F480731360032000F0FCF80F20E6
:1036C000FDF782F8FDF758F80023184680BD00BFCB
:1036D000003C024080B400AF064B1B781A46064BF4
:1036E0001B681344044A136000BFBD465DF8047BA9
:1036F000704700BF1800002024CA002080B400AF2B
:10370000034B1B681846BD465DF8047B704700BF3D
:1037100024CA002080B584B000AF7860FFF7EEFFC8
:10372000B8607B68FB60FB68B3F1FF3F05D00A4BD4
:103730001B781A46FB681344FB6000BFFFF7DEFFEF
:103740000246BB68D31AFA689A42F7D800BF00BF96
:103750001037BD4680BD00BF1800002080B485B082
:1037600000AF78607B6803F00703FB600C4BDB68FD
:10377000BB60BA684FF6FF031340BB60FB681A02D8
:10378000BB68134343F0BF6343F40033BB60044A98
:10379000BB68D36000BF1437BD465DF8047B70473B
:1037A00000ED00E080B400AF044BDB681B0A03F0BF
:1037B00007031846BD465DF8047B704700ED00E046
:1037C00080B483B000AF0346FB7197F90730002B3C
:1037D0000BDBFB7903F01F02074997F907305B0900
:1037E000012000FA02F241F8232000BF0C37BD4649
:1037F0005DF8047B704700BF00E100E080B483B057
:1038000000AF03463960FB7197F90730002B0ADBE4
:103810003B68DAB20C4997F907301201D2B20B4477
:1038200083F800230AE03B68DAB20849FB7903F029
:103830000F03043B1201D2B20B441A7600BF0C37BF
:10384000BD465DF8047B704700E100E000ED00E05C
:1038500080B489B000AFF860B9607A60FB6803F0AB
:103860000703FB61FB69C3F10703042B28BF042393
:10387000BB61FB690433062B02D9FB69033B00E003
:1038800000237B614FF0FF32BB6902FA03F3DA4396
:10389000BB681A407B699A404FF0FF317B6901FA9F
:1038A00003F3D9437B680B40134318462437BD46C6
:1038B0005DF8047B704780B582B000AF78607868AF
:1038C000FFF74CFF00BF0837BD4680BD80B586B00E
:1038D00000AF0346B9607A60FB7300237B61FFF79A
:1038E00061FF78617A68B9687869FFF7B1FF0246CD
:1038F00097F90F3011461846FFF780FF00BF1837C1
:10390000BD4680BD80B582B000AF0346FB7197F91C
:1039100007301846FFF754FF00BF0837BD4680BD8B
:1039200080B489B000AF7860396000237B610023E8
:103930003B610023BB610023FB6159E10122FB696C
:1039400002FA03F37B613B681B687A6913403B61B1
:103950003A697B699A4240F048813B685B6803F0B2
:103960000303012B05D03B685B6803F00303022BC4
:1039700030D17B689B68BB61FB695B00032202FA64
:1039800003F3DB43BA691340BB613B68DA68FB6948
:103990005B0002FA03F3BA691343BB617B68BA693F
:1039A0009A607B685B68BB610122FB6902FA03F3E2
:1039B000DB43BA691340BB613B685B681B0903F0DA
:1039C0000102FB6902FA03F3BA691343BB617B6826
:1039D000BA695A603B685B6803F00303032B17D096
:1039E0007B68DB68BB61FB695B00032202FA03F3BF
:1039F000DB43BA691340BB613B689A68FB695B00B3
:103A000002FA03F3BA691343BB617B68BA69DA60EF
:103A10003B685B6803F00303022B23D1FB69DA08E0
:103A20007B68083253F82230BB61FB6903F007035F
:103A30009B000F2202FA03F3DB43BA691340BB6118
:103A40003B681A69FB6903F007039B0002FA03F362
:103A5000BA691343BB61FB69DA087B680832B9694C
:103A600043F822107B681B68BB61FB695B00032283
:103A700002FA03F3DB43BA691340BB613B685B683E
:103A800003F00302FB695B0002FA03F3BA69134314
:103A9000BB617B68BA691A603B685B6803F44033BA
:103AA000002B00F0A2800023FB60574B5B6C564A52
:103AB00043F480435364544B5B6C03F48043FB60DA
:103AC000FB68524AFB699B08023352F82330BB6102
:103AD000FB6903F003039B000F2202FA03F3DB43AD
:103AE000BA691340BB617B68494A934219D07B682D
:103AF000484A934213D07B68474A93420DD07B6873
:103B0000464A934207D07B68454A934201D1042339
:103B100008E0072306E0032304E0022302E0012378
:103B200000E00023FA6902F0030292009340BA69B0
:103B30001343BB613549FB699B080233BA6941F8FD
:103B40002320384B9B68BB613B69DB43BA69134058
:103B5000BB613B685B6803F48013002B03D0BA6938
:103B60003B691343BB612F4ABB6993602D4BDB68F4
:103B7000BB613B69DB43BA691340BB613B685B686F
:103B800003F40013002B03D0BA693B691343BB61F4
:103B9000244ABB69D360234B5B68BB613B69DB4351
:103BA000BA691340BB613B685B6803F40033002BC8
:103BB00003D0BA693B691343BB611A4ABB695360BE
:103BC000184B1B68BB613B69DB43BA691340BB619F
:103BD0003B685B6803F48033002B03D0BA693B6910
:103BE0001343BB610F4ABB691360FB690133FB617F
:103BF000FB690F2B7FF6A2AE00BF00BF2437BD4686
:103C00005DF8047B704700BF003802400038014077
:103C1000000002400004024000080240000C024084
:103C200000100240003C014080B483B000AF7860D7
:103C30000B467B8013467B707B78002B03D07A8801
:103C40007B689A6103E07B881A047B689A6100BFF5
:103C50000C37BD465DF8047B704780B485B000AF7B
:103C600078600B467B807B685B69FB607A88FB68C9
:103C700013401A04FB68D9437B880B401A437B68C6
:103C80009A6100BF1437BD465DF8047B70470000A1
:103C900080B586B000AF78607B68002B01D101232E
:103CA00067E27B681B6803F00103002B75D0884B2B
:103CB0009B6803F00C03042B0CD0854B9B6803F02E
:103CC0000C03082B12D1824B5B6803F48003B3F51D
:103CD000800F0BD17E4B1B6803F40033002B5BD0AD
:103CE0007B685B68002B57D1012342E27B685B68ED
:103CF000B3F5803F06D1764B1B68754A43F4803399
:103D000013601DE07B685B68B3F5A02F0CD1704B8E
:103D10001B686F4A43F4802313606D4B1B686C4A29
:103D200043F4803313600BE0694B1B68684A23F44B
:103D300080331360664B1B68654A23F4802313604D
:103D40007B685B68002B13D0FFF7D8FC386108E074
:103D5000FFF7D4FC02463B69D31A642B01D9032335
:103D600007E25B4B1B6803F40033002BF0D014E038
:103D7000FFF7C4FC386108E0FFF7C0FC02463B696E
:103D8000D31A642B01D90323F3E1514B1B6803F4CD
:103D90000033002BF0D100E000BF7B681B6803F00C
:103DA0000203002B63D04A4B9B6803F00C03002BEB
:103DB0000BD0474B9B6803F00C03082B1CD1444BE2
:103DC0005B6803F48003002B16D1414B1B6803F0A2
:103DD0000203002B05D07B68DB68012B01D0012397
:103DE000C7E13B4B1B6823F0F8027B681B69DB00D3
:103DF000374913430B603AE07B68DB68002B20D027
:103E0000344B01221A60FFF779FC386108E0FFF7B4
:103E100075FC02463B69D31A022B01D90323A8E1A2
:103E20002B4B1B6803F00203002BF0D0284B1B68C0
:103E300023F0F8027B681B69DB00254913430B6004
:103E400015E0244B00221A60FFF758FC386108E0A7
:103E5000FFF754FC02463B69D31A022B01D9032316
:103E600087E11B4B1B6803F00203002BF0D17B683A
:103E70001B6803F00803002B36D07B685B69002BBE
:103E800016D0154B01221A60FFF738FC386108E0A4
:103E9000FFF734FC02463B69D31A022B01D90323F6
:103EA00067E10B4B5B6F03F00203002BF0D01BE0CC
:103EB000094B00221A60FFF721FC38610EE0FFF782
:103EC0001DFC02463B69D31A022B07D9032350E19C
:103ED0000038024000004742800E4742884B5B6F2B
:103EE00003F00203002BEAD17B681B6803F0040394
:103EF000002B00F097800023FB75814B1B6C03F0B7
:103F00008053002B0FD10023BB607D4B1B6C7C4A80
:103F100043F0805313647A4B1B6C03F08053BB60F7
:103F2000BB680123FB75774B1B6803F48073002B80
:103F300018D1744B1B68734A43F480731360FFF706
:103F4000DDFB386108E0FFF7D9FB02463B69D31A75
:103F5000022B01D903230CE16A4B1B6803F4807325
:103F6000002BF0D07B689B68012B06D1644B1B6F44
:103F7000634A43F0010313671CE07B689B68052BD1
:103F80000CD15F4B1B6F5E4A43F0040313675C4B1D
:103F90001B6F5B4A43F0010313670BE0584B1B6F29
:103FA000574A23F001031367554B1B6F544A23F004
:103FB000040313677B689B68002B15D0FFF79EFBFB
:103FC00038610AE0FFF79AFB02463B69D31A41F2D7
:103FD0008832934201D90323CBE0494B1B6F03F096
:103FE0000203002BEED014E0FFF788FB38610AE0F3
:103FF000FFF784FB02463B69D31A41F288329342B1
:1040000001D90323B5E03E4B1B6F03F00203002BE5
:10401000EED1FB7D012B05D1394B1B6C384A23F0C7
:10402000805313647B689B69002B00F0A180344BA4
:104030009B6803F00C03082B5CD07B689B69022B08
:1040400041D1314B00221A60FFF758FB386108E07C
:10405000FFF754FB02463B69D31A022B01D9032315
:1040600087E0274B1B6803F00073002BF0D17B68BF
:10407000DA697B681B6A1A437B685B6A9B011A4397
:104080007B689B6A5B08013B1B041A437B68DB6A05
:104090001B061B4913434B601B4B01221A60FFF7A1
:1040A0002DFB386108E0FFF729FB02463B69D31A74
:1040B000022B01D903235CE0114B1B6803F0007352
:1040C000002BF0D054E0104B00221A60FFF716FBD3
:1040D000386108E0FFF712FB02463B69D31A022B56
:1040E00001D9032345E0064B1B6803F00073002B46
:1040F000F0D13DE07B689B69012B07D1012338E0BB
:104100000038024000700040600047421B4B5B6873
:10411000FB607B689B69012B28D0FB6803F480025D
:104120007B68DB699A4221D1FB6803F03F027B6820
:104130001B6A9A421AD1FA6847F6C07313407A682C
:10414000526A9201934211D1FB6803F440327B68BA
:104150009B6A5B08013B1B049A4207D1FB6803F092
:1041600070627B68DB6A1B069A4201D0012300E083
:10417000002318461837BD4680BD00BF00380240F6
:1041800080B584B000AF786039607B68002B01D1C6
:104190000123CCE0684B1B6803F007033A689A429E
:1041A0000CD9654B3A68D2B21A70634B1B6803F0A6
:1041B00007033A689A4201D00123B8E07B681B6884
:1041C00003F00203002B20D07B681B6803F004037C
:1041D000002B05D0594B9B68584A43F4E053936039
:1041E0007B681B6803F00803002B05D0534B9B68CA
:1041F000524A43F460439360504B9B6823F0F002B3
:104200007B689B684D4913438B607B681B6803F098
:104210000103002B44D07B685B68012B07D1474B1F
:104220001B6803F40033002B19D101237FE07B6866
:104230005B68022B03D07B685B68032B07D13F4B85
:104240001B6803F00073002B09D101236FE03B4B87
:104250001B6803F00203002B01D1012367E0374BF9
:104260009B6823F003027B685B68344913438B60CF
:10427000FFF744FAF8600AE0FFF740FA0246FB68ED
:10428000D31A41F28832934201D903234FE02B4BDA
:104290009B6803F00C027B685B689B009A42EBD141
:1042A000254B1B6803F007033A689A420CD2224B55
:1042B0003A68D2B21A70204B1B6803F007033A68C1
:1042C0009A4201D0012332E07B681B6803F00403AB
:1042D000002B08D0194B9B6823F4E0527B68DB6805
:1042E000164913438B607B681B6803F00803002B9F
:1042F00009D0124B9B6823F460427B681B69DB008A
:104300000E4913438B6000F021F802460B4B9B686B
:104310001B0903F00F030A49CB5C22FA03F3094A95
:104320001360094B1B681846FCF74EFA0023184629
:104330001037BD4680BD00BF003C0240003802403F
:104340003C4B000800000020140000202DE9B04F75
:1043500090B000AF00237B630023FB6300233B632B
:104360000023BB63594B9B6803F00C03082B0DD053
:10437000082B00F2A180002B02D0042B03D09BE07D
:10438000534BBB639BE0534BBB6398E04F4B5B6865
:1043900003F03F037B634D4B5B6803F48003002B0A
:1043A00028D04A4B5B689B0900223B627A623B6AD9
:1043B000C3F308000021474B03FB01F2002300FB7D
:1043C00003F31344434AA0FB0212FA620A46BA629C
:1043D000FA6A1344FB627B6B0022BB61FA61D7E986
:1043E0000623D7E90A01FBF7FBFE02460B461346FC
:1043F000FB6353E0354B5B689B0900223B617A61AC
:104400003B69C3F3080A4FF0000B52465B464FF07E
:1044100000004FF00001590141EAD261500102460B
:104420000B46B2EB0A0863EB0B094FF000024FF0AA
:1044300000034FEA891343EA98634FEA8812B2EB0C
:10444000080463EB09054FF000024FF00003EB0096
:1044500043EA5473E20014461D4614EB0A033B6022
:1044600045EB0B037B604FF000024FF00003D7E9F0
:10447000004529468B02214643EA915321468A0290
:10448000104619467B6B0022BB60FA60D7E9022315
:10449000FBF7A6FE02460B461346FB630B4B5B681D
:1044A0001B0C03F0030301335B003B63FA6B3B6BB4
:1044B000B2FBF3F3BB6302E0054BBB6300BFBB6B16
:1044C00018464037BD46BDE8B08F00BF00380240F7
:1044D0000024F40040787D0180B400AF034B1B68DA
:1044E0001846BD465DF8047B704700BF0000002001
:1044F00080B500AFFFF7F0FF0246054B9B689B0AB3
:1045000003F007030349CB5C22FA03F3184680BD8E
:10451000003802404C4B000880B483B000AF786094
:1045200039607B680F221A60124B9B6803F003020C
:104530007B685A600F4B9B6803F0F0027B689A60BF
:104540000C4B9B6803F4E0527B68DA60094B9B6874
:10455000DB0803F4E0527B681A61074B1B6803F029
:1045600007023B681A6000BF0C37BD465DF8047B4C
:10457000704700BF00380240003C024080B582B066
:1045800000AF78607B68002B01D1012341E07B689C
:1045900093F83D30DBB2002B06D17B68002283F814
:1045A0003C20786800F039F87B68022283F83D20CF
:1045B0007B681A687B6804331946104600F0B2F92C
:1045C0007B68012283F846207B68012283F83E2025
:1045D0007B68012283F83F207B68012283F840201A
:1045E0007B68012283F841207B68012283F8422006
:1045F0007B68012283F843207B68012283F84420F2
:104600007B68012283F845207B68012283F83D20E6
:10461000002318460837BD4680BD80B483B000AF84
:10462000786000BF0C37BD465DF8047B7047000022
:1046300080B485B000AF78607B6893F83D30DBB222
:10464000012B01D0012344E07B68022283F83D2046
:104650007B681B68DA687B681B6842F00102DA60DD
:104660007B681B681E4A934218D07B681B68B3F1B5
:10467000804F13D07B681B681A4A93420ED07B6828
:104680001B68194A934209D07B681B68174A9342FA
:1046900004D07B681B68164A934211D17B681B6863
:1046A0009B6803F00703FB60FB68062B10D07B6858
:1046B0001B681A687B681B6842F001021A6007E0F9
:1046C0007B681B681A687B681B6842F001021A60ED
:1046D000002318461437BD465DF8047B704700BFC1
:1046E000000001400004004000080040000C0040B1
:1046F0000040014080B584B000AF78607B681B68E3
:10470000DB68FB607B681B681B69BB60BB6803F0F0
:104710000203002B20D0FB6803F00203002B1BD008
:104720007B681B686FF002021A617B6801221A77AE
:104730007B681B689B6903F00303002B03D0786838
:1047400000F0D2F805E0786800F0C4F8786800F06E
:10475000D5F87B6800221A77BB6803F00403002BAE
:1047600020D0FB6803F00403002B1BD07B681B6880
:104770006FF004021A617B6802221A777B681B685B
:104780009B6903F44073002B03D0786800F0ACF809
:1047900005E0786800F09EF8786800F0AFF87B6874
:1047A00000221A77BB6803F00803002B20D0FB68B7
:1047B00003F00803002B1BD07B681B686FF0080216
:1047C0001A617B6804221A777B681B68DB6903F037
:1047D0000303002B03D0786800F086F805E07868C2
:1047E00000F078F8786800F089F87B6800221A7782
:1047F000BB6803F01003002B20D0FB6803F010030C
:10480000002B1BD07B681B686FF010021A617B685D
:1048100008221A777B681B68DB6903F44073002B5E
:1048200003D0786800F060F805E0786800F052F88E
:10483000786800F063F87B6800221A77BB6803F0A1
:104840000103002B0CD0FB6803F00103002B07D001
:104850007B681B686FF001021A617868FBF776FFCE
:10486000BB6803F08003002B0CD0FB6803F08003CF
:10487000002B07D07B681B686FF080021A61786894
:1048800000F0E6F8BB6803F04003002B0CD0FB6897
:1048900003F04003002B07D07B681B686FF04002D9
:1048A0001A61786800F034F8BB6803F02003002B2D
:1048B0000CD0FB6803F02003002B07D07B681B683B
:1048C0006FF020021A61786800F0B8F800BF103766
:1048D000BD4680BD80B483B000AF786000BF0C37A8
:1048E000BD465DF8047B704780B483B000AF78604C
:1048F00000BF0C37BD465DF8047B704780B483B0C1
:1049000000AF786000BF0C37BD465DF8047B704790
:1049100080B483B000AF786000BF0C37BD465DF84F
:10492000047B704780B485B000AF786039607B68E5
:104930001B68FB607B683A4A93420FD07B68B3F1F7
:10494000804F0BD07B68374A934207D07B68364A4A
:10495000934203D07B68354A934208D1FB6823F029
:104960007003FB603B685B68FA681343FB607B681D
:104970002B4A93421BD07B68B3F1804F17D07B68E2
:10498000284A934213D07B68274A93420FD07B6812
:10499000264A93420BD07B68254A934207D07B6816
:1049A000244A934203D07B68234A934208D1FB6890
:1049B00023F44073FB603B68DB68FA681343FB60D9
:1049C000FB6823F080023B685B691343FB607B68F4
:1049D000FA681A603B689A687B68DA623B681A6812
:1049E0007B689A627B680E4A934203D13B681A69DE
:1049F0007B681A637B6801225A617B681B6903F03C
:104A00000103012B05D17B681B6923F001027B6840
:104A10001A6100BF1437BD465DF8047B704700BFC4
:104A2000000001400004004000080040000C00406D
:104A300000400140004401400048014080B483B080
:104A400000AF786000BF0C37BD465DF8047B70474F
:104A500080B483B000AF786000BF0C37BD465DF80E
:104A6000047B704702440346934200D1704703F829
:104A7000011BF9E770B50D4D0D4C641BA410002609
:104A8000A64209D10B4D0C4C00F026F8641BA41073
:104A90000026A64205D170BD55F8043B9847013663
:104AA000EEE755F8043B98470136F2E75C4B000807
:104AB0005C4B00085C4B0008604B00080A449142C4
:104AC00000F1FF3300D1704710B511F8014B03F826
:104AD000014F9142F9D110BDF8B500BFF8BC08BC38
:104AE0009E467047F8B500BFF8BC08BC9E467047AC
:104AF00054726166666963204D756C7469706C658B
:104B00007800000054726166666963204C696768CA
:104B100074000000547261666669632054696D65B3
:104B20007200000049444C4500000000546D7220A2
:104B300053766300546D72510000000000000000C5
:104B4000000000000102030406070809000000003D
:044B50000102030457
:084B5400BCB6FF7F0100000068
:044B5C00C501000887
:044B6000A1010008A7
:104B64000024F400AAAAAAAA3F065B4F666D7D073B
:0C4B74007F6F0000100000000100000036
:0400000508000931B5
:00000001FF
