:020000040800F2
:1000000000000120D10A0008610A0008690A0008FE
:10001000710A0008790A0008810A0008000000003F
:10002000000000000000000000000000714900080E
:10003000890A000800000000C14B0008BD24000828
:10004000210B0008210B0008210B0008210B0008E0
:10005000210B0008210B0008210B0008210B0008D0
:10006000210B0008210B0008210B0008210B0008C0
:10007000210B0008210B0008210B0008210B0008B0
:10008000210B0008210B0008210B000800000000D4
:10009000000000000000000000000000210B00082C
:1000A000210B0008210B0008210B0008210B000880
:1000B000990A0008210B0008210B0008210B0008F9
:1000C000210B0008210B0008210B0008210B000860
:1000D000210B0008210B0008210B00080000000084
:1000E000210B0008210B0008210B00080000000074
:1000F000000000000000000000000000210B0008CC
:1001000000000000210B0008210B0008210B000853
:1001100000000000000000000000000000000000DF
:10012000210B0008210B0008210B0008210B0008FF
:10013000210B00080000000000000000000000008B
:10014000000000000000000000000000210B00087B
:10015000210B0008210B0008210B0008210B0008CF
:10016000210B0008210B0008000000000000000027
:10017000000000000000000000000000000000007F
:1001800000000000210B000800000000000000003B
:04019000210B000837
:1001A00010B5054C237833B9044B13B10448AFF3B1
:1001B00000800123237010BD6C00002000000000AF
:1001C000F852000808B5034B1BB103490348AFF3CD
:1001D000008008BD0000000070000020F8520008F8
:1001E00053B94AB9002908BF00281CBF4FF0FF319E
:1001F0004FF0FF3000F06AB9ADF1080C6DE904CEA4
:1002000000F006F8DDF804E0DDE9022304B07047F1
:100210002DE9F047089D0C46002B4ED194468C45A5
:100220008646B2FA82F262D94AB1C2F12003914005
:1002300020FA03F30CFA02FC194300FA02FE4FEA1B
:100240001C471FFA8CF6B1FBF7F44FEA1E4307FB7D
:10025000141143EA014304FB06F199420AD91CEB4D
:10026000030304F1FF3080F01281994240F20F81C4
:10027000023C6344591A1FFA8EF3B1FBF7F007FBF7
:10028000101143EA014300FB06F69E420AD91CEB1B
:10029000030300F1FF3180F0FC809E4240F2F980C0
:1002A000634402389B1B40EA044000211DB1D34047
:1002B0000022C5E90032BDE8F0878B4205D90DB1B7
:1002C000C5E9000100210846F5E7B3FA83F10029EA
:1002D00046D1A34202D39042C0F0F080861A64EB6C
:1002E00003030120002DE6D0C5E90063E3E7002AFF
:1002F00040F09080A1EB0C044FEA1C481FFA8CF7E9
:100300000121B4FBF8F64FEA1E4308FB164443EA0A
:10031000044307FB06F0984208D91CEB030306F1DF
:10032000FF3402D2984200F2CD8026461C1A1FFAF2
:100330008EF3B4FBF8F008FB104443EA044300FBDF
:1003400007F79F4208D91CEB030300F1FF3402D2E8
:100350009F4200F2B0802046DB1B40EA0640A5E742
:10036000C1F120068B4022FA06F71F4320FA06FC53
:1003700004FA01F343EA0C03F44000FA01F8380CE4
:100380004FEA1349B4FBF0FE1FFA87FC00FB1E4442
:1003900049EA04440EFB0CF9A14502FA01F20AD91C
:1003A0003C190EF1FF3A80F08480A14540F2818033
:1003B000AEF1020E3C44A4EB09041FFA83F9B4FB2E
:1003C000F0F300FB134449EA044403FB0CFCA4458E
:1003D00007D93C1903F1FF3067D2A44565D9023B28
:1003E0003C4443EA0E40A0FB0293A4EB0C049C4265
:1003F000CE469C4651D34ED055B1B8EB0E0364EBBC
:100400000C0404FA06F6CB401E43CC40C5E9006458
:10041000002150E7C2F1200320FA03F10CFA02FC9C
:1004200024FA03F394400C434FEA1C4800FA02FEFE
:100430001FFA8CF7B3FBF8F008FB1031230C43EAEA
:10044000014300FB07F1994208D91CEB030300F1BB
:10045000FF362CD299422AD9023863445B1AA4B2DF
:10046000B3FBF8F108FB113344EA034401FB07F343
:10047000A34208D91CEB040401F1FF3613D2A342B6
:1004800011D902396444E41A41EA004139E70446CB
:10049000F0E6084606E7C845AED2B9EB020E63EBBC
:1004A000070C0138A8E73146EDE7034699E73046E7
:1004B000D4E7D6467FE7634402384DE70646234635
:1004C00008460FE7023E634430E700BF704700BFB5
:1004D00080B582B002AF00F0EFFD00F057F800F0F9
:1004E000B5F84FF400611E4800F01CFB4FF480513A
:1004F0001B4800F017FB4FF40041194800F012FBB5
:1005000000F002FC002301930323009300238022C8
:100510001449154802F024FE144B1B680193022372
:100520000093002380221249124802F019FE124B58
:100530001B68019301230093002380220F49104878
:1005400002F00EFE00230193042300930023802277
:100550000C490D4802F004FE03F006F900BFFDE768
:100560000000024010530008A50600088C0000207F
:1005700024530008E90600089000002034530008C6
:10058000C506000844530008D107000880B594B0A0
:1005900000AF07F1200330220021184604F0C4FD0B
:1005A00007F10C0300221A605A609A60DA601A613F
:1005B0000023BB60234B1B6C224A43F0805313641F
:1005C000204B1B6C03F08053BB60BB6800237B6037
:1005D0001D4B1B6823F440431B4A43F40043136044
:1005E000194B1B6803F440437B607B6802233B622A
:1005F0000123FB6210233B630023BB6307F120034D
:10060000184601F071F80346002B01D000F079F98B
:100610000F23FB6000233B6100237B610023BB6150
:100620000023FB6107F10C030021184601F0D4FA06
:100630000346002B01D000F064F900BF5037BD46DF
:1006400080BD00BF003802400070004080B586B019
:1006500000AF3B1D00221A605A609A60DA601A618E
:1006600000233B600D4B1B6B0C4A43F004031363E8
:100670000A4B1B6B03F004033B603B684FF4604381
:100680007B600023BB600023FB603B1D19460448D0
:1006900000F05AFE00BF1837BD4680BD003802404A
:1006A0000008024080B582B000AF7860044B1B7830
:1006B000184600F0C7FC0A2002F0B0FE00BFF5E7C4
:1006C0008800002080B582B000AF7860054B1B78B1
:1006D0000133DAB2034B1A704FF47A7002F09EFEC7
:1006E00000BFF3E78800002080B582B000AF7860DB
:1006F000344B1B78022B40D0022B5BDC002B02D04A
:10070000012B1DD056E001224FF400612E4800F06D
:10071000BBFA01224FF400412B4800F0D5FA012228
:100720004FF48051284800F0CFFA41F2707002F087
:1007300075FE244B02221A70244B00221A7040E0EE
:1007400001224FF40061204800F0BEFA01224FF46C
:1007500000411D4800F0B8FA01224FF480511A48B8
:1007600000F092FA4FF4FA7002F058FE154B002296
:100770001A70164B00221A7023E001224FF4006118
:10078000114800F0A1FA01224FF400410E4800F098
:100790007BFA01224FF480510B4800F095FA41F2A8
:1007A000707002F03BFE074B01221A70074B0022CB
:1007B0001A7006E0034B00221A70044BFF221A70D5
:1007C00000BF95E78900002000000240880000205B
:1007D00080B584B000AF78600023FB730023BB7347
:1007E00000237B734FF400513A4800F031FF034679
:1007F000FB734FF48041374800F02AFF0346BB7378
:100800004FF40041334800F023FF03467B73FB7B2A
:10081000012B48D1304B1B68184602F09DFE2F4B30
:100820001B68184602F098FEBB7B012B12D10122F7
:100830004FF400612A4800F047FA01224FF40041CA
:10084000274800F021FA01224FF48051244800F09B
:100850003BFA3AE07B7B012B12D101224FF400617D
:100860001F4800F011FA01224FF400411C4800F02B
:100870002BFA01224FF48051194800F025FA24E0A8
:1008800001224FF40061164800F01EFA01224FF4D5
:100890000041134800F018FA01224FF4805110482B
:1008A00000F012FA11E00C4B1B68184602F0ECFD48
:1008B0000346032B09D1084B1B68184602F0F4FECF
:1008C000064B1B68184602F0EFFE322002F0A6FD30
:1008D00088E700BF00080240900000208C00002044
:1008E0000000024080B582B000AF78607B681B6872
:1008F000B3F1804F01D100F001FC00BF0837BD46C5
:1009000080BD80B400AF72B600BF00BFFDE700003D
:1009100080B582B000AF00237B60124B5B6C114A44
:1009200043F4804353640F4B5B6C03F480437B6060
:100930007B6800233B600B4B1B6C0A4A43F08053DF
:100940001364084B1B6C03F080533B603B68002230
:100950000F216FF0010000F0CDFC00BF0837BD464D
:1009600080BD00BF0038024080B58EB000AF786017
:100970000023FB620023BB620023FB60344B1B6C33
:10098000334A43F001031364314B1B6C03F0010342
:10099000FB60FB6807F1100207F1140311461846CB
:1009A00001F0E6FA3B6AFB62FB6A002B03D101F01F
:1009B000CBFA786304E001F0C7FA03465B007B637F
:1009C0007B6B244AA2FB03239B0C013BBB62224BA3
:1009D0004FF080421A60204B40F2E732DA601E4A44
:1009E000BB6A53601C4B00221A611B4B00229A60A9
:1009F000194B00229A61184801F0ECFA034687F877
:100A0000333097F83330002B1BD1134801F03CFBF7
:100A1000034687F8333097F83330002B11D11C2070
:100A200000F084FC7B680F2B08D8002279681C201A
:100A300000F060FC094A7B68136002E0012387F83C
:100A4000333097F8333018463837BD4680BD00BF85
:100A50000038024083DE1B43940000201000002079
:100A600080B400AF00BFFDE780B400AF00BFFDE77A
:100A700080B400AF00BFFDE780B400AF00BFFDE76A
:100A800080B400AF00BFFDE780B400AF00BFBD463B
:100A90005DF8047B7047000080B500AF024801F0AC
:100AA00055FB00BF80BD00BF9400002080B400AFA4
:100AB000064BD3F88830054A43F47003C2F88830F7
:100AC00000BFBD465DF8047B704700BF00ED00E04D
:100AD000DFF834D0FFF7EAFF0C480D490D4A002338
:100AE00002E0D458C4500433C4188C42F9D30A4AE3
:100AF0000A4C002301E013600432A242FBD304F04D
:100B000071FBFFF7E5FC70470000012000000020AA
:100B10006C000020945300086C000020044C00205E
:100B2000FEE7000080B58EB000AF78600B467B809A
:100B30007B684E4A934269D04C4A934200F29280BD
:100B40004B4A934253D04A4A934200F28B80494A1F
:100B500093423DD0474A934200F28480464A9342F2
:100B600027D0454A93427DD8444A934203D0444A11
:100B700093420FD076E000233B62424B1B6B414A0D
:100B800043F0010313633F4B1B6B03F001033B6214
:100B90003B6A4AE00023FB613A4B1B6B394A43F046
:100BA00002031363374B1B6B03F00203FB61FB690A
:100BB0003BE00023BB61334B1B6B324A43F0040321
:100BC0001363304B1B6B03F00403BB61BB692CE068
:100BD00000237B612B4B1B6B2A4A43F008031363F2
:100BE000284B1B6B03F008037B617B691DE000232E
:100BF0003B61244B1B6B234A43F010031363214BCF
:100C00001B6B03F010033B613B690EE00023FB60AC
:100C10001C4B1B6B1B4A43F080031363194B1B6B6C
:100C200003F08003FB60FB6800BF7B88002219464D
:100C3000786800F025FD07F1240300221A605A604D
:100C40009A60DA601A617B887B620123BB620023B1
:100C5000FB6200233B6307F124031946786800F028
:100C600073FB00E000BF3837BD4680BD001C02406A
:100C700000100240000C0240000802400000024048
:100C8000000402400038024080B582B000AF7860B6
:100C90000B467B8013467B707B78012B02D0022BA6
:100CA00007D00DE07B8801221946786800F0E8FC47
:100CB00006E07B8800221946786800F0E1FC00BF5E
:100CC00000BF0837BD4680BD80B582B000AF7860F8
:100CD0000B467B8013467B707B78012B02D0022B66
:100CE00007D00DE07B8800221946786800F0C8FC28
:100CF00006E07B8801221946786800F0C1FC00BF3D
:100D000000BF0837BD4680BD80B592B000AF00235C
:100D1000FB62394B1B6B384A43F002031363364BBB
:100D20001B6B03F00203FB62FB6A00BF07F1340395
:100D300000221A605A609A60DA601A6103237B63AA
:100D40000123BB630023FB6300233B6407F13403EF
:100D500019462A4800F0F8FA00220221274800F03C
:100D60008FFC00220121254800F08AFC00237B61D2
:100D7000214B1B6B204A43F0020313631E4B1B6B7A
:100D800003F002037B617B6900BF4FF47E737B63DA
:100D90000123BB630023FB6300233B6407F134039F
:100DA0001946164800F0D0FA00224FF4007113489B
:100DB00000F066FC00224FF48071104800F060FCE7
:100DC000002280210D4800F05BFC002240210B48EE
:100DD00000F056FC00222021084800F051FC0022BF
:100DE0001021064800F04CFC00220821034800F0C6
:100DF00047FC4837BD4680BD003802400004024031
:100E000080B582B000AF03460A46FB711346BB7142
:100E1000FB79092B00F20D8100224FF40071874805
:100E200000F02EFC00224FF48071844800F028FC72
:100E300000228021814800F023FC002240217F48CD
:100E400000F01EFC002220217C4800F019FC00224A
:100E500010217A4800F014FC00220821774800F0A5
:100E60000FFCBB79012B02D0022B71D0E1E0FB79A2
:100E7000734AD35C03F00103002B0CBF0123002352
:100E8000DBB21A464FF400716C4800F0F9FBFB79B5
:100E90006B4AD35C03F00203002B0CBF0123002339
:100EA000DBB21A464FF48071644800F0E9FBFB792D
:100EB000634AD35C03F00403002B0CBF012300231F
:100EC000DBB21A4680215D4800F0DAFBFB795C4A10
:100ED000D35C03F00803002B0CBF01230023DBB21B
:100EE0001A464021554800F0CBFBFB79544AD35CAD
:100EF00003F01003002B0CBF01230023DBB21A46C2
:100F000020214E4800F0BCFBFB794D4AD35C03F036
:100F10002003002B0CBF01230023DBB21A46102153
:100F2000464800F0ADFBFB79454AD35C03F0400333
:100F3000002B0CBF01230023DBB21A4608213F48D7
:100F400000F09EFB012202213C4800F099FB70E07A
:100F5000FB793B4AD35C03F00103002B0CBF012358
:100F60000023DBB21A464FF40071344800F088FBCE
:100F7000FB79334AD35C03F00203002B0CBF01233F
:100F80000023DBB21A464FF480712C4800F078FB46
:100F9000FB792B4AD35C03F00403002B0CBF012325
:100FA0000023DBB21A468021244800F069FBFB795C
:100FB000234AD35C03F00803002B0CBF012300235A
:100FC000DBB21A4640211D4800F05AFBFB791C4A4F
:100FD000D35C03F01003002B0CBF01230023DBB212
:100FE0001A462021154800F04BFBFB79144AD35CCC
:100FF00003F02003002B0CBF01230023DBB21A46B1
:1010000010210E4800F03CFBFB790D4AD35C03F045
:101010004003002B0CBF01230023DBB21A4608213A
:10102000064800F02DFB01220121044800F028FBB6
:1010300000BF00BF0837BD4680BD00BF00040240AE
:101040000400002080B584B000AF0346FB71FB793B
:10105000632B28D8FA79164BA3FB0213D9080B4649
:101060009B000B445B00D31AFB73FB79104AA2FB75
:101070000323DB08BB7301210E4800F01AFBBB7B86
:1010800001211846FFF7BCFE052000F057F80221A9
:10109000084800F00EFBFB7B02211846FFF7B0FE6C
:1010A000052000F04BF800BF1037BD4680BD00BFE3
:1010B000CDCCCCCC0004024080B500AF0E4B1B68F9
:1010C0000D4A43F4007313600B4B1B680A4A43F448
:1010D00080631360084B1B68074A43F480731360F6
:1010E000032000F0FCF80F20FFF73EFCFFF710FC98
:1010F0000023184680BD00BF003C024080B400AF12
:10110000064B1B781A46064B1B681344044A1360AF
:1011100000BFBD465DF8047B704700BF140000208F
:10112000DC00002080B400AF034B1B681846BD46AE
:101130005DF8047B704700BFDC00002080B584B000
:1011400000AF7860FFF7EEFFB8607B68FB60FB687C
:10115000B3F1FF3F05D00A4B1B781A46FB681344D6
:10116000FB6000BFFFF7DEFF0246BB68D31AFA68D8
:101170009A42F7D800BF00BF1037BD4680BD00BF00
:101180001400002080B485B000AF78607B6803F065
:101190000703FB600C4BDB68BB60BA684FF6FF03CC
:1011A0001340BB60FB681A02BB68134343F0BF6384
:1011B00043F40033BB60044ABB68D36000BF1437FC
:1011C000BD465DF8047B704700ED00E080B400AFE1
:1011D000044BDB681B0A03F007031846BD465DF8A5
:1011E000047B704700ED00E080B483B000AF03469D
:1011F000FB7197F90730002B0BDBFB7903F01F0223
:10120000074997F907305B09012000FA02F241F81B
:10121000232000BF0C37BD465DF8047B704700BF3C
:1012200000E100E080B483B000AF03463960FB7199
:1012300097F90730002B0ADB3B68DAB20C4997F9C3
:1012400007301201D2B20B4483F800230AE03B6856
:10125000DAB20849FB7903F00F03043B1201D2B262
:101260000B441A7600BF0C37BD465DF8047B70470F
:1012700000E100E000ED00E080B489B000AFF8606C
:10128000B9607A60FB6803F00703FB61FB69C3F197
:101290000703042B28BF0423BB61FB690433062B1F
:1012A00002D9FB69033B00E000237B614FF0FF3272
:1012B000BB6902FA03F3DA43BB681A407B699A40C0
:1012C0004FF0FF317B6901FA03F3D9437B680B4090
:1012D000134318462437BD465DF8047B704780B53C
:1012E00082B000AF78607868FFF74CFF00BF083726
:1012F000BD4680BD80B586B000AF0346B9607A6058
:10130000FB7300237B61FFF761FF78617A68B9683E
:101310007869FFF7B1FF024697F90F30114618467A
:10132000FFF780FF00BF1837BD4680BD80B582B093
:1013300000AF0346FB7197F907301846FFF754FFDB
:1013400000BF0837BD4680BD80B489B000AF78606B
:10135000396000237B6100233B610023BB610023D4
:10136000FB6159E10122FB6902FA03F37B613B68EF
:101370001B687A6913403B613A697B699A4240F085
:1013800048813B685B6803F00303012B05D03B6891
:101390005B6803F00303022B30D17B689B68BB6161
:1013A000FB695B00032202FA03F3DB43BA691340D3
:1013B000BB613B68DA68FB695B0002FA03F3BA6958
:1013C0001343BB617B68BA699A607B685B68BB61E9
:1013D0000122FB6902FA03F3DB43BA691340BB61E4
:1013E0003B685B681B0903F00102FB6902FA03F327
:1013F000BA691343BB617B68BA695A603B685B6832
:1014000003F00303032B17D07B68DB68BB61FB6928
:101410005B00032202FA03F3DB43BA691340BB61AA
:101420003B689A68FB695B0002FA03F3BA691343ED
:10143000BB617B68BA69DA603B685B6803F00303F1
:10144000022B23D1FB69DA087B68083253F822307B
:10145000BB61FB6903F007039B000F2202FA03F351
:10146000DB43BA691340BB613B681A69FB6903F04F
:1014700007039B0002FA03F3BA691343BB61FB69DC
:10148000DA087B680832B96943F822107B681B6868
:10149000BB61FB695B00032202FA03F3DB43BA6919
:1014A0001340BB613B685B6803F00302FB695B00B0
:1014B00002FA03F3BA691343BB617B68BA691A6025
:1014C0003B685B6803F44033002B00F0A2800023EC
:1014D000FB60574B5B6C564A43F480435364544B58
:1014E0005B6C03F48043FB60FB68524AFB699B081A
:1014F000023352F82330BB61FB6903F003039B0006
:101500000F2202FA03F3DB43BA691340BB617B6825
:10151000494A934219D07B68484A934213D07B686A
:10152000474A93420DD07B68464A934207D07B6876
:10153000454A934201D1042308E0072306E0032330
:1015400004E0022302E0012300E00023FA6902F034
:10155000030292009340BA691343BB613549FB69AA
:101560009B080233BA6941F82320384B9B68BB6162
:101570003B69DB43BA691340BB613B685B6803F4BA
:101580008013002B03D0BA693B691343BB612F4A18
:10159000BB6993602D4BDB68BB613B69DB43BA6978
:1015A0001340BB613B685B6803F40013002B03D05E
:1015B000BA693B691343BB61244ABB69D360234BBF
:1015C0005B68BB613B69DB43BA691340BB613B6845
:1015D0005B6803F40033002B03D0BA693B69134303
:1015E000BB611A4ABB695360184B1B68BB613B69FE
:1015F000DB43BA691340BB613B685B6803F480332B
:10160000002B03D0BA693B691343BB610F4ABB6926
:101610001360FB690133FB61FB690F2B7FF6A2AE00
:1016200000BF00BF2437BD465DF8047B704700BF94
:10163000003802400038014000000240000402402F
:1016400000080240000C024000100240003C014033
:1016500080B485B000AF78600B467B807B681A69E8
:101660007B881340002B02D00123FB7301E0002391
:10167000FB73FB7B18461437BD465DF8047B70474F
:1016800080B483B000AF78600B467B8013467B70DC
:101690007B78002B03D07A887B689A6103E07B8893
:1016A0001A047B689A6100BF0C37BD465DF8047B65
:1016B000704780B485B000AF78600B467B807B6854
:1016C0005B69FB607A88FB6813401A04FB68D943A6
:1016D0007B880B401A437B689A6100BF1437BD4674
:1016E0005DF8047B7047000080B586B000AF78607D
:1016F0007B68002B01D1012367E27B681B6803F044
:101700000103002B75D0884B9B6803F00C03042B5E
:101710000CD0854B9B6803F00C03082B12D1824B35
:101720005B6803F48003B3F5800F0BD17E4B1B681D
:1017300003F40033002B5BD07B685B68002B57D130
:10174000012342E27B685B68B3F5803F06D1764BAC
:101750001B68754A43F4803313601DE07B685B6847
:10176000B3F5A02F0CD1704B1B686F4A43F4802354
:1017700013606D4B1B686C4A43F4803313600BE0BD
:10178000694B1B68684A23F480331360664B1B68FF
:10179000654A23F4802313607B685B68002B13D0B9
:1017A000FFF7C0FC386108E0FFF7BCFC02463B696C
:1017B000D31A642B01D9032307E25B4B1B6803F4A4
:1017C0000033002BF0D014E0FFF7ACFC386108E0E8
:1017D000FFF7A8FC02463B69D31A642B01D9032307
:1017E000F3E1514B1B6803F40033002BF0D100E010
:1017F00000BF7B681B6803F00203002B63D04A4BD9
:101800009B6803F00C03002B0BD0474B9B6803F045
:101810000C03082B1CD1444B5B6803F48003002BA2
:1018200016D1414B1B6803F00203002B05D07B68E7
:10183000DB68012B01D00123C7E13B4B1B6823F080
:10184000F8027B681B69DB00374913430B603AE001
:101850007B68DB68002B20D0344B01221A60FFF735
:1018600061FC386108E0FFF75DFC02463B69D31A72
:10187000022B01D90323A8E12B4B1B6803F00203C1
:10188000002BF0D0284B1B6823F0F8027B681B6903
:10189000DB00254913430B6015E0244B00221A603E
:1018A000FFF740FC386108E0FFF73CFC02463B696B
:1018B000D31A022B01D9032387E11B4B1B6803F0CA
:1018C0000203002BF0D17B681B6803F00803002B98
:1018D00036D07B685B69002B16D0154B01221A604D
:1018E000FFF720FC386108E0FFF71CFC02463B696B
:1018F000D31A022B01D9032367E10B4B5B6F03F073
:101900000203002BF0D01BE0094B00221A60FFF706
:1019100009FC38610EE0FFF705FC02463B69D31A6B
:10192000022B07D9032350E1003802400000474250
:10193000800E4742884B5B6F03F00203002BEAD115
:101940007B681B6803F00403002B00F097800023E2
:10195000FB75814B1B6C03F08053002B0FD10023D0
:10196000BB607D4B1B6C7C4A43F0805313647A4B05
:101970001B6C03F08053BB60BB680123FB75774B86
:101980001B6803F48073002B18D1744B1B68734AD7
:1019900043F480731360FFF7C5FB386108E0FFF77D
:1019A000C1FB02463B69D31A022B01D903230CE188
:1019B0006A4B1B6803F48073002BF0D07B689B6834
:1019C000012B06D1644B1B6F634A43F0010313677D
:1019D0001CE07B689B68052B0CD15F4B1B6F5E4A3C
:1019E00043F0040313675C4B1B6F5B4A43F0010336
:1019F00013670BE0584B1B6F574A23F00103136723
:101A0000554B1B6F544A23F0040313677B689B6894
:101A1000002B15D0FFF786FB38610AE0FFF782FB49
:101A200002463B69D31A41F28832934201D903231B
:101A3000CBE0494B1B6F03F00203002BEED014E008
:101A4000FFF770FB38610AE0FFF76CFB02463B6969
:101A5000D31A41F28832934201D90323B5E03E4BB9
:101A60001B6F03F00203002BEED1FB7D012B05D190
:101A7000394B1B6C384A23F0805313647B689B6995
:101A8000002B00F0A180344B9B6803F00C03082B63
:101A90005CD07B689B69022B41D1314B00221A60DC
:101AA000FFF740FB386108E0FFF73CFB02463B696B
:101AB000D31A022B01D9032387E0274B1B6803F0BD
:101AC0000073002BF0D17B68DA697B681B6A1A43CC
:101AD0007B685B6A9B011A437B689B6A5B08013BDE
:101AE0001B041A437B68DB6A1B061B4913434B60CC
:101AF0001B4B01221A60FFF715FB386108E0FFF766
:101B000011FB02463B69D31A022B01D903235CE087
:101B1000114B1B6803F00073002BF0D054E0104B06
:101B200000221A60FFF7FEFA386108E0FFF7FAFAC0
:101B300002463B69D31A022B01D9032345E0064B29
:101B40001B6803F00073002BF0D13DE07B689B69BC
:101B5000012B07D1012338E000380240007000401B
:101B6000600047421B4B5B68FB607B689B69012BF5
:101B700028D0FB6803F480027B68DB699A4221D19C
:101B8000FB6803F03F027B681B6A9A421AD1FA682D
:101B900047F6C07313407A68526A9201934211D19A
:101BA000FB6803F440327B689B6A5B08013B1B04C3
:101BB0009A4207D1FB6803F070627B68DB6A1B0600
:101BC0009A4201D0012300E0002318461837BD4691
:101BD00080BD00BF0038024080B584B000AF78609F
:101BE00039607B68002B01D10123CCE0684B1B6876
:101BF00003F007033A689A420CD9654B3A68D2B2AF
:101C00001A70634B1B6803F007033A689A4201D0CD
:101C10000123B8E07B681B6803F00203002B20D08F
:101C20007B681B6803F00403002B05D0594B9B68AD
:101C3000584A43F4E05393607B681B6803F0080341
:101C4000002B05D0534B9B68524A43F4604393608A
:101C5000504B9B6823F0F0027B689B684D4913430F
:101C60008B607B681B6803F00103002B44D07B680A
:101C70005B68012B07D1474B1B6803F40033002B33
:101C800019D101237FE07B685B68022B03D07B685E
:101C90005B68032B07D13F4B1B6803F00073002BDD
:101CA00009D101236FE03B4B1B6803F00203002BBB
:101CB00001D1012367E0374B9B6823F003027B6867
:101CC0005B68344913438B60FFF72CFAF8600AE035
:101CD000FFF728FA0246FB68D31A41F28832934292
:101CE00001D903234FE02B4B9B6803F00C027B6868
:101CF0005B689B009A42EBD1254B1B6803F00703FE
:101D00003A689A420CD2224B3A68D2B21A70204BEF
:101D10001B6803F007033A689A4201D0012332E0BE
:101D20007B681B6803F00403002B08D0194B9B68E9
:101D300023F4E0527B68DB68164913438B607B68B1
:101D40001B6803F00803002B09D0124B9B6823F497
:101D500060427B681B69DB000E4913438B6000F017
:101D600021F802460B4B9B681B0903F00F030A493D
:101D7000CB5C22FA03F3094A1360094B1B6818462F
:101D8000FEF7F2FD002318461037BD4680BD00BFA8
:101D9000003C0240003802406C5300080000002064
:101DA000100000202DE9B04F90B000AF00237B63FE
:101DB0000023FB6300233B630023BB63594B9B68F9
:101DC00003F00C03082B0DD0082B00F2A180002B90
:101DD00002D0042B03D09BE0534BBB639BE0534BDF
:101DE000BB6398E04F4B5B6803F03F037B634D4B55
:101DF0005B6803F48003002B28D04A4B5B689B0987
:101E000000223B627A623B6AC3F308000021474B21
:101E100003FB01F2002300FB03F31344434AA0FB3E
:101E20000212FA620A46BA62FA6A1344FB627B6BD8
:101E30000022BB61FA61D7E90623D7E90A01FEF760
:101E4000CFF902460B461346FB6353E0354B5B6804
:101E50009B0900223B617A613B69C3F3080A4FF09A
:101E6000000B52465B464FF000004FF00001590155
:101E700041EAD261500102460B46B2EB0A0863EB1D
:101E80000B094FF000024FF000034FEA891343EAB9
:101E900098634FEA8812B2EB080463EB09054FF030
:101EA00000024FF00003EB0043EA5473E2001446D3
:101EB0001D4614EB0A033B6045EB0B037B604FF0C0
:101EC00000024FF00003D7E9004529468B02214666
:101ED00043EA915321468A02104619467B6B002241
:101EE000BB60FA60D7E90223FEF77AF902460B4697
:101EF0001346FB630B4B5B681B0C03F003030133BE
:101F00005B003B63FA6B3B6BB2FBF3F3BB6302E03A
:101F1000054BBB6300BFBB6B18464037BD46BDE8F1
:101F2000B08F00BF003802400024F40040787D01EB
:101F300080B400AF034B1B681846BD465DF8047BB8
:101F4000704700BF0000002080B500AFFFF7F0FF32
:101F50000246054B9B689B0A03F007030349CB5CD1
:101F600022FA03F3184680BD003802407C53000873
:101F700080B483B000AF786039607B680F221A604C
:101F8000124B9B6803F003027B685A600F4B9B68FF
:101F900003F0F0027B689A600C4B9B6803F4E052FC
:101FA0007B68DA60094B9B68DB0803F4E0527B68CE
:101FB0001A61074B1B6803F007023B681A6000BFF9
:101FC0000C37BD465DF8047B704700BF0038024007
:101FD000003C024080B582B000AF78607B68002B87
:101FE00001D1012341E07B6893F83D30DBB2002B47
:101FF00006D17B68002283F83C20786800F039F82D
:102000007B68022283F83D207B681A687B68043372
:102010001946104600F0B2F97B68012283F8462089
:102020007B68012283F83E207B68012283F83F20F1
:102030007B68012283F840207B68012283F84120DD
:102040007B68012283F842207B68012283F84320C9
:102050007B68012283F844207B68012283F84520B5
:102060007B68012283F83D20002318460837BD46CF
:1020700080BD80B483B000AF786000BF0C37BD4630
:102080005DF8047B7047000080B485B000AF7860D5
:102090007B6893F83D30DBB2012B01D0012344E093
:1020A0007B68022283F83D207B681B68DA687B68C6
:1020B0001B6842F00102DA607B681B681E4A93428B
:1020C00018D07B681B68B3F1804F13D07B681B6806
:1020D0001A4A93420ED07B681B68194A934209D072
:1020E0007B681B68174A934204D07B681B68164ABA
:1020F000934211D17B681B689B6803F00703FB6068
:10210000FB68062B10D07B681B681A687B681B680D
:1021100042F001021A6007E07B681B681A687B685E
:102120001B6842F001021A60002318461437BD46AE
:102130005DF8047B704700BF0000014000040040D0
:1021400000080040000C00400040014080B584B011
:1021500000AF78607B681B68DB68FB607B681B688E
:102160001B69BB60BB6803F00203002B20D0FB6837
:1021700003F00203002B1BD07B681B686FF0020288
:102180001A617B6801221A777B681B689B6903F0E0
:102190000303002B03D0786800F0D2F805E07868DC
:1021A00000F0C4F8786800F0D5F87B6800221A7750
:1021B000BB6803F00403002B20D0FB6803F004038A
:1021C000002B1BD07B681B686FF004021A617B68D0
:1021D00002221A777B681B689B6903F44073002B0B
:1021E00003D0786800F0ACF805E0786800F09EF85D
:1021F000786800F0AFF87B6800221A77BB6803F0BC
:102200000803002B20D0FB6803F00803002B1BD031
:102210007B681B686FF008021A617B6804221A77DA
:102220007B681B68DB6903F00303002B03D078682D
:1022300000F086F805E0786800F078F8786800F03B
:1022400089F87B6800221A77BB6803F01003002B23
:1022500020D0FB6803F01003002B1BD07B681B68A9
:102260006FF010021A617B6808221A777B681B687E
:10227000DB6903F44073002B03D0786800F060F84A
:1022800005E0786800F052F8786800F063F87B6841
:1022900000221A77BB6803F00103002B0CD0FB6807
:1022A00003F00103002B07D07B681B686FF001026D
:1022B0001A617868FEF716FBBB6803F08003002BF9
:1022C0000CD0FB6803F08003002B07D07B681B68F1
:1022D0006FF080021A61786800F0E6F8BB6803F0DE
:1022E0004003002B0CD0FB6803F04003002B07D009
:1022F0007B681B686FF040021A61786800F034F860
:10230000BB6803F02003002B0CD0FB6803F0200314
:10231000002B07D07B681B686FF020021A61786879
:1023200000F0B8F800BF1037BD4680BD80B483B060
:1023300000AF786000BF0C37BD465DF8047B704786
:1023400080B483B000AF786000BF0C37BD465DF845
:10235000047B704780B483B000AF786000BF0C3757
:10236000BD465DF8047B704780B483B000AF7860F1
:1023700000BF0C37BD465DF8047B704780B485B064
:1023800000AF786039607B681B68FB607B683A4A05
:1023900093420FD07B68B3F1804F0BD07B68374AF4
:1023A000934207D07B68364A934203D07B68354A14
:1023B000934208D1FB6823F07003FB603B685B68C5
:1023C000FA681343FB607B682B4A93421BD07B68FF
:1023D000B3F1804F17D07B68284A934213D07B68B3
:1023E000274A93420FD07B68264A93420BD07B68E2
:1023F000254A934207D07B68244A934203D07B68E6
:10240000234A934208D1FB6823F44073FB603B6886
:10241000DB68FA681343FB60FB6823F080023B68CB
:102420005B691343FB607B68FA681A603B689A68D3
:102430007B68DA623B681A687B689A627B680E4A3E
:10244000934203D13B681A697B681A637B68012257
:102450005A617B681B6903F00103012B05D17B687E
:102460001B6923F001027B681A6100BF1437BD4667
:102470005DF8047B704700BF00000140000400408D
:1024800000080040000C00400040014000440140B2
:102490000048014080B483B000AF786000BF0C37C3
:1024A000BD465DF8047B704780B483B000AF7860B0
:1024B00000BF0C37BD465DF8047B704780B500AFA8
:1024C000054B1B6801F0B4FD0346012B01D002F05F
:1024D000ABFB00BF80BD00BF10E000E080B485B062
:1024E00000AFF860B9607A60FB68074A1A60BB68A1
:1024F000064A1A607B6880221A6000BF1437BD4606
:102500005DF8047B704700BFE000002088010020D8
:1025100080B485B000AFF860B9607A60FB68074AA4
:102520001A60BB68064A1A607B684FF480721A60B2
:1025300000BF1437BD465DF8047B70478803002058
:102540003004002080B483B000AF78607B6803F172
:1025500008027B685A607B684FF0FF329A607B68A4
:1025600003F108027B68DA607B6803F108027B688C
:102570001A617B6800221A6000BF0C37BD465DF807
:10258000047B704780B483B000AF78607B68002222
:102590001A6100BF0C37BD465DF8047B704780B4FC
:1025A00085B000AF786039607B685B68FB603B6832
:1025B000FA685A60FB689A683B689A60FB689B6897
:1025C0003A685A60FB683A689A603B687A681A61B0
:1025D0007B681B685A1C7B681A6000BF1437BD46B5
:1025E0005DF8047B704780B485B000AF78603960D7
:1025F0003B681B68BB60BB68B3F1FF3F03D17B68DE
:102600001B69FB600CE07B680833FB6002E0FB6841
:102610005B68FB60FB685B681B68BA689A42F6D22D
:10262000FB685A683B685A603B685B683A689A6026
:102630003B68FA689A60FB683A685A603B687A6857
:102640001A617B681B685A1C7B681A6000BF1437CC
:10265000BD465DF8047B704780B485B000AF7860FC
:102660007B681B69FB607B685B687A6892689A602C
:102670007B689B687A6852685A60FB685B687A6816
:102680009A4203D17B689A68FB685A607B68002293
:102690001A61FB681B685A1EFB681A60FB681B689E
:1026A00018461437BD465DF8047B704780B584B08A
:1026B00000AF786039607B68FB60FB68002B0BD152
:1026C0004FF0500383F31188BFF36F8FBFF34F8F29
:1026D000BB6000BF00BFFDE702F016FAFB681A6896
:1026E000FB68DB6BF968096C01FB03F31A44FB68B8
:1026F0009A60FB6800229A63FB681A68FB685A605C
:10270000FB681A68FB68DB6B013BF968096C01FB2D
:1027100003F31A44FB68DA60FB68FF2283F8442065
:10272000FB68FF2283F845203B68002B14D1FB682F
:102730001B69002B1AD0FB681033184601F0B2FA5F
:102740000346002B12D00D4B4FF080521A60BFF39E
:102750004F8FBFF36F8F09E0FB6810331846FFF708
:10276000F1FEFB6824331846FFF7ECFE02F0FEF999
:10277000012318461037BD4680BD00BF04ED00E0C0
:1027800080B58EB002AFF860B9607A603B60FB68DC
:10279000002B0BD14FF0500383F31188BFF36F8FE1
:1027A000BFF34F8FBB6200BF00BFFDE73B68002B4C
:1027B0000BD14FF0500383F31188BFF36F8FBFF33A
:1027C0004F8F7B6200BF00BFFDE77B68002B02D00C
:1027D000BB68002B01D0012300E00023002B0BD1AC
:1027E0004FF0500383F31188BFF36F8FBFF34F8F08
:1027F0003B6200BF00BFFDE77B68002B02D1BB68D6
:10280000002B01D1012300E00023002B0BD14FF05E
:10281000500383F31188BFF36F8FBFF34F8FFB61BA
:1028200000BF00BFFDE750237B617B69502B0BD0BD
:102830004FF0500383F31188BFF36F8FBFF34F8FB7
:10284000BB6100BF00BFFDE77B693B68FB62FB6AC1
:10285000002B0DD0FB6A012283F8462097F8382020
:10286000FB6A009313467A68B968F86800F005F8C7
:10287000FB6A18463037BD4680BD80B584B000AFD6
:10288000F860B9607A60FB70BB68002B03D1BB694C
:10289000BA691A6002E0BB697A681A60BB69FA68B3
:1028A000DA63BB69BA681A640121B869FFF7FEFEF2
:1028B000BB69FA7883F84C2000BF1037BD4680BD55
:1028C00080B58EB000AFF860B9607A603B600023DD
:1028D0007B63FB683B633B6B002B0BD14FF05003DA
:1028E00083F31188BFF36F8FBFF34F8FBB6200BFBD
:1028F00000BFFDE7BB68002B03D13B6B1B6C002BBB
:1029000001D1012300E00023002B0BD14FF0500335
:1029100083F31188BFF36F8FBFF34F8F7B6200BFCC
:1029200000BFFDE73B68022B03D13B6BDB6B012B48
:1029300001D1012300E00023002B0BD14FF0500305
:1029400083F31188BFF36F8FBFF34F8F3B6200BFDC
:1029500000BFFDE701F06CFB0346002B02D17B6852
:10296000002B01D1012300E00023002B0BD14FF0FD
:10297000500383F31188BFF36F8FBFF34F8FFB6159
:1029800000BF00BFFDE702F0BFF83B6B9A6B3B6BEB
:10299000DB6B9A4202D33B68022B29D13A68B968B3
:1029A000386B00F00FFAF8623B6B5B6A002B10D0BB
:1029B0003B6B2433184601F075F90346002B13D006
:1029C0003F4B4FF080521A60BFF34F8FBFF36F8FB2
:1029D0000AE0FB6A002B07D0394B4FF080521A6097
:1029E000BFF34F8FBFF36F8F02F0C0F8012363E096
:1029F0007B68002B03D102F0B9F800235CE07B6B0D
:102A0000002B06D107F11403184601F0AFF901239A
:102A10007B6302F0ABF800F017FF02F075F83B6B38
:102A200093F844305BB2B3F1FF3F03D13B6B00221C
:102A300083F844203B6B93F845305BB2B3F1FF3F22
:102A400003D13B6B002283F8452002F08FF83A1D3A
:102A500007F114031146184601F09EF90346002BB6
:102A600024D1386B00F0A6FA0346002B18D03B6B3C
:102A700010337A681146184601F0C2F8386B00F03E
:102A800031FA00F0EFFE0346002B7FF47CAF0C4BD5
:102A90004FF080521A60BFF34F8FBFF36F8F72E712
:102AA000386B00F01FFA00F0DDFE6CE7386B00F0C9
:102AB00019FA00F0D7FE002318463837BD4680BD0E
:102AC00004ED00E080B590B000AFF860B9607A60C6
:102AD0003B60FB68BB63BB6B002B0BD14FF050031B
:102AE00083F31188BFF36F8FBFF34F8FBB6200BFBB
:102AF00000BFFDE7BB68002B03D1BB6B1B6C002B39
:102B000001D1012300E00023002B0BD14FF0500333
:102B100083F31188BFF36F8FBFF34F8F7B6200BFCA
:102B200000BFFDE73B68022B03D1BB6BDB6B012BC6
:102B300001D1012300E00023002B0BD14FF0500303
:102B400083F31188BFF36F8FBFF34F8F3B6200BFDA
:102B500000BFFDE702F0B8F8EFF311824FF0500329
:102B600083F31188BFF36F8FBFF34F8FFA61BB619F
:102B7000FB697B63BB6B9A6BBB6BDB6B9A4202D3CB
:102B80003B68022B2FD1BB6B93F8453087F833306D
:102B9000BB6B9B6BFB623A68B968B86B00F012F9CB
:102BA00097F93330B3F1FF3F12D1BB6B5B6A002B57
:102BB00016D0BB6B2433184601F074F80346002B83
:102BC0000ED07B68002B0BD07B6801221A6007E0D7
:102BD00097F833300133DBB25AB2BB6B83F8452030
:102BE0000123FB6301E00023FB637B6B7B617B695B
:102BF00083F3118800BFFB6B18464037BD4680BD8C
:102C000080B58CB000AFF860B9607A600023FB62D9
:102C1000FB68BB62BB6A002B0BD14FF0500383F300
:102C20001188BFF36F8FBFF34F8F3B6200BF00BFB0
:102C3000FDE7BB68002B03D1BB6A1B6C002B01D1E5
:102C4000012300E00023002B0BD14FF0500383F34E
:102C50001188BFF36F8FBFF34F8FFB6100BF00BFC1
:102C6000FDE701F0E5F90346002B02D17B68002B5C
:102C700001D1012300E00023002B0BD14FF05003C2
:102C800083F31188BFF36F8FBFF34F8FBB6100BF1A
:102C900000BFFDE701F038FFBB6A9B6B7B627B6A7C
:102CA000002B1FD0B968B86A00F0F6F87B6A5A1E8C
:102CB000BB6A9A63BB6A1B69002B0FD0BB6A1033D7
:102CC000184600F0EFFF0346002B07D03C4B4FF0B7
:102CD00080521A60BFF34F8FBFF36F8F01F046FF32
:102CE000012369E07B68002B03D101F03FFF002343
:102CF00062E0FB6A002B06D107F11003184601F0D1
:102D000035F80123FB6201F031FF00F09DFD01F079
:102D1000FBFEBB6A93F844305BB2B3F1FF3F03D1D3
:102D2000BB6A002283F84420BB6A93F845305BB24B
:102D3000B3F1FF3F03D1BB6A002283F8452001F0C5
:102D400015FF3A1D07F110031146184601F024F84B
:102D50000346002B23D1B86A00F016F90346002B76
:102D600017D0BB6A24337A681146184600F048FF32
:102D7000B86A00F0B7F800F075FD0346002B89D162
:102D80000F4B4FF080521A60BFF34F8FBFF36F8F1E
:102D900080E7B86A00F0A6F800F064FD7AE7B86A48
:102DA00000F0A0F800F05EFDB86A00F0EDF8034610
:102DB000002B3FF46FAF002318463037BD4680BD6F
:102DC00004ED00E080B586B000AFF860B9607A60CD
:102DD00000237B61FB689B6B3B61FB681B6C002BDA
:102DE0000DD1FB681B68002B4DD1FB689B68184612
:102DF00001F03CF97861FB6800229A6043E07B684F
:102E0000002B19D1FB685868FB681B6C1A46B9681F
:102E100002F00EFAFB685A68FB681B6C1A44FB68E8
:102E20005A60FB685A68FB689B689A422BD3FB6820
:102E30001A68FB685A6026E0FB68D868FB681B6C60
:102E40001A46B96802F0F4F9FB68DA68FB681B6C93
:102E50005B421A44FB68DA60FB68DA68FB681B684F
:102E60009A4207D2FB689A68FB681B6C5B421A4463
:102E7000FB68DA607B68022B05D13B69002B02D02E
:102E80003B69013B3B613B695A1CFB689A637B6968
:102E900018461837BD4680BD80B582B000AF786057
:102EA00039607B681B6C002B18D07B68DA687B6804
:102EB0001B6C1A447B68DA607B68DA687B689B6805
:102EC0009A4203D37B681A687B68DA607B68D968AA
:102ED0007B681B6C1A46386802F0AAF900BF0837F5
:102EE000BD4680BD80B584B000AF786001F00CFEB7
:102EF0007B6893F84530FB7311E07B685B6A002BBD
:102F000012D07B682433184600F0CCFE0346002B19
:102F100001D000F0A5FFFB7B013BDBB2FB7397F90F
:102F20000F30002BE9DC00E000BF7B68FF2283F854
:102F3000452001F01BFE01F0E7FD7B6893F844306B
:102F4000BB7311E07B681B69002B12D07B681033C8
:102F5000184600F0A7FE0346002B01D000F080FFCA
:102F6000BB7B013BDBB2BB7397F90E30002BE9DC76
:102F700000E000BF7B68FF2283F8442001F0F6FDEB
:102F800000BF1037BD4680BD80B584B000AF78600B
:102F900001F0BAFD7B689B6B002B02D10123FB6023
:102FA00001E00023FB6001F0E1FDFB6818461037EB
:102FB000BD4680BD80B584B000AF786001F0A4FD4F
:102FC0007B689A6B7B68DB6B9A4202D10123FB60C2
:102FD00001E00023FB6001F0C9FDFB6818461037D3
:102FE000BD4680BD80B485B000AF786039600023F5
:102FF000FB6014E00F4AFB6852F83330002B0BD112
:103000000C49FB683A6841F833200A4AFB68DB0048
:1030100013447A685A6006E0FB680133FB60FB6882
:10302000072BE7D900BF00BF1437BD465DF8047B0E
:10303000704700BF3008002080B586B000AFF86050
:10304000B9607A60FB687B6101F05EFD7B6993F893
:1030500044305BB2B3F1FF3F03D17B69002283F8B8
:1030600044207B6993F845305BB2B3F1FF3F03D155
:103070007B69002283F8452001F078FD7B699B6B1A
:10308000002B06D17B6924337A68B968184600F0B2
:10309000DDFD7869FFF726FF00BF1837BD4680BD0C
:1030A00080B58EB004AFF860B9607A603B607B6B2E
:1030B000002B0BD14FF0500383F31188BFF36F8FB8
:1030C000BFF34F8F3B6200BF00BFFDE7BB6B002B20
:1030D0000BD14FF0500383F31188BFF36F8FBFF311
:1030E0004F8FFB6100BF00BFFDE7A8233B613B6939
:1030F000A82B0BD04FF0500383F31188BFF36F8FD1
:10310000BFF34F8FBB6100BF00BFFDE73B69BB6BE7
:10311000002B1ED07B6B002B1BD0BB6B7B627B6AB2
:103120007A6B1A637B6A022283F8A520002303933B
:103130007B6A029307F1140301933B6B00933B6896
:103140007A68B968F86800F051F8786A00F0F6F823
:1031500001E000237B617B6918462837BD4680BDAE
:1031600080B58CB004AFF860B9603B601346FB805B
:10317000FB889B00184601F0E9FD78617B69002B14
:103180000ED0A82001F0E2FDF861FB69002B03D00E
:10319000FB697A691A6305E0786901F0A5FE01E030
:1031A0000023FB61FB69002B17D0FB69002283F829
:1031B000A520FA8800230393FB690293FB6A01931D
:1031C000BB6A00933B68B968F86800F00FF8F869CB
:1031D00000F0B4F80123BB6102E04FF0FF33BB61A4
:1031E000BB6918462037BD4680BD000080B588B059
:1031F00000AFF860B9607A603B603B6B186B7B682E
:103200009B001A46A52101F08FFF3B6B1A6B7B6870
:1032100003F18043013B9B001344BB61BB6923F076
:103220000703BB61BB6903F00703002B0BD04FF012
:10323000500383F31188BFF36F8FBFF34F8F7B6110
:1032400000BF00BFFDE7BB68002B1FD00023FB6160
:1032500012E0BA68FB69134419783A6BFB691344AE
:1032600034330A461A70BA68FB6913441B78002B82
:1032700006D0FB690133FB61FB690F2BE9D900E044
:1032800000BF3B6B002283F8432003E03B6B00222E
:1032900083F83420BB6A372B01D93723BB623B6BE1
:1032A000BA6ADA623B6BBA6ADA643B6B00221A656F
:1032B0003B6B04331846FFF765F93B6B1833184630
:1032C000FFF760F93B6B3A6B1A61BB6AC3F13802D6
:1032D0003B6B9A613B6B3A6B5A623B6B0022C3F8C3
:1032E000A0203B6B002283F8A4203B6B54334C227C
:1032F0000021184601F018FF3B6B0D4A9A653B6BA5
:103300000C4ADA653B6B0C4A1A663A68F968B86988
:1033100001F0CAFA02463B6B1A60FB6A002B02D02E
:10332000FB6A3A6B1A6000BF2037BD4680BD00BF04
:10333000C44A00202C4B0020944B002080B582B062
:1033400000AF786001F0E0FB2D4B1B6801332C4A85
:1033500013602C4B1B68002B09D12A4A7B68136031
:10336000274B1B68012B10D100F09EFD0DE0264B72
:103370001B68002B09D1234B1B68DA6A7B68DB6A68
:103380009A4202D81F4A7B681360204B1B680133A6
:103390001E4A13601D4B1A687B685A647B68DA6AA0
:1033A0001B4B1B689A4203D97B68DB6A184A13607F
:1033B0007B68DA6A13469B0013449B00154A1A4443
:1033C0007B68043319461046FFF7E9F801F0CEFB9D
:1033D0000D4B1B68002B0ED00A4B1B68DA6A7B680A
:1033E000DB6A9A4207D20C4B4FF080521A60BFF34F
:1033F0004F8FBFF36F8F00BF0837BD4680BD00BF42
:10340000440D002070080020500D0020600D0020A9
:103410004C0D00207408002004ED00E080B584B05D
:1034200000AF78600023FB607B68002B18D0144B42
:103430001B68002B0BD04FF0500383F31188BFF3B0
:103440006F8FBFF34F8FBB6000BF00BFFDE700F081
:10345000FBF90021786800F079FE00F003FAF860CB
:10346000FB68002B07D1074B4FF080521A60BFF367
:103470004F8FBFF36F8F00BF1037BD4680BD00BFB9
:103480006C0D002004ED00E080B588B000AF7860DE
:103490007B68BB61BB69002B0BD14FF0500383F3FA
:1034A0001188BFF36F8FBFF34F8FBB6000BF00BFAA
:1034B000FDE7244B1B68BA699A4202D10023FB77CF
:1034C0003AE001F021FBBB695B697B611E4B1B6825
:1034D0003B611E4B1B68FB6001F048FB7A693B694E
:1034E0009A4203D07A69FB689A4202D10223FB77A1
:1034F00022E07B69164A934212D1BB699B6A002B7A
:103500000BD1BB6993F8A430DBB2012B02D10223AB
:10351000FB7711E00323FB770EE00223FB770BE040
:103520007B690C4A934202D07B69002B02D10423B1
:10353000FB7701E00123FB77FB7F18462037BD4670
:1035400080BD00BF70080020FC0C0020000D002092
:10355000300D0020180D002080B584B000AF7860D9
:1035600001F0D2FA7B68002B02D1304B1B6800E0DF
:103570007B68FB60FB6804331846FFF76DF8FB6857
:103580009B6A002B04D0FB6818331846FFF764F8D9
:10359000FB68043319462648FFF701F8FB6893F8E7
:1035A000A430DBB2012B03D1FB68002283F8A420F6
:1035B00001F0DCFA1F4B1B68002B05D001F0A4FAC8
:1035C00000F016FD01F0D2FA184B1B68FA689A4217
:1035D00028D1184B1B68002B18D0174B1B68002BE9
:1035E0000BD04FF0500383F31188BFF36F8FBFF3FD
:1035F0004F8FBB6000BF00BFFDE7104B4FF0805204
:103600001A60BFF34F8FBFF36F8F0BE0084B1A6840
:103610000B4B1B689A4203D1044B00221A6001E055
:1036200000F088FA00BF1037BD4680BD700800204A
:10363000300D0020500D00206C0D002004ED00E046
:10364000440D002080B487B000AF786000237B6118
:103650007B683B617B68002B0BD14FF0500383F3F9
:103660001188BFF36F8FBFF34F8FFB6000BF00BFA8
:10367000FDE73B695B690A4A93420AD13B699B6A51
:10368000084A934205D03B699B6A002B01D1012374
:103690007B617B6918461C37BD465DF8047B70472B
:1036A000300D0020040D002080B584B000AF78609C
:1036B0007B68FB607B68002B0BD14FF0500383F3DA
:1036C0001188BFF36F8FBFF34F8FBB6000BF00BF88
:1036D000FDE7214B1B68FA689A4238D0FB68002B43
:1036E00035D001F011FAF868FFF7ACFF0346002B64
:1036F0002BD0FB6804331846FEF7AEFFFB68DA6A8E
:10370000164B1B689A4203D9FB68DB6A134A1360A5
:10371000FB68DA6A13469B0013449B00104A1A4464
:10372000FB68043319461046FEF739FFFB68DA6A76
:10373000094B1B68DB6A9A4207D30A4B4FF0805251
:103740001A60BFF34F8FBFF36F8F01F00FFA00BF06
:103750001037BD4680BD00BF700800204C0D002012
:103760007408002004ED00E080B58AB004AF0023A7
:10377000BB6000237B603A46391D07F108031846F9
:10378000FEF7ACFE39687B68BA68029201930023A9
:10379000009300230A4624492448FFF781FC03468E
:1037A000234A1360224B1B68002B02D001237B614C
:1037B00001E000237B617B69012B02D100F01AFD3F
:1037C00078617B69012B1BD14FF0500383F3118883
:1037D000BFF36F8FBFF34F8F3B6100BF154B1B686B
:1037E0005433154A1360154B4FF0FF321A60144BD7
:1037F00001221A60134B00221A6001F0E1F80FE079
:103800007B69B3F1FF3F0BD14FF0500383F3118875
:10381000BFF36F8FBFF34F8FFB6000BF00BFFDE7AB
:1038200000BF1837BD4680BD54530008793E0008DC
:10383000680D0020700800201C000020640D00208E
:10384000500D0020480D002080B400AF044B1B68D1
:103850000133034A136000BFBD465DF8047B704727
:103860006C0D002080B584B000AF0023FB60002306
:10387000BB60424B1B68002B0BD14FF0500383F30E
:103880001188BFF36F8FBFF34F8F3B6000BF00BF46
:10389000FDE701F039F9394B1B68013B374A1360EA
:1038A000364B1B68002B62D1354B1B68002B5ED05A
:1038B0002FE0344BDB68DB68FB60FB68183318468D
:1038C000FEF7CAFEFB6804331846FEF7C5FEFB6828
:1038D000DA6A2D4B1B689A4203D9FB68DB6A2A4AD5
:1038E0001360FB68DA6A13469B0013449B00274A67
:1038F0001A44FB68043319461046FEF750FEFB6875
:10390000DA6A234B1B68DB6A9A4202D3214B0122FD
:103910001A601C4B1B68002BCBD1FB68002B01D01D
:1039200000F066FB1C4B1B687B607B68002B10D093
:1039300000F046F80346002B02D0164B01221A6015
:103940007B68013B7B607B68002BF1D1124B00222E
:103950001A60104B1B68002B09D00123BB600F4B72
:103960004FF080521A60BFF34F8FBFF36F8F01F09B
:10397000FDF8BB6818461037BD4680BD6C0D0020B1
:10398000440D0020040D00204C0D00207408002080
:1039900070080020580D0020540D002004ED00E0B8
:1039A00080B483B000AF054B1B687B607B68184612
:1039B0000C37BD465DF8047B704700BF480D002002
:1039C00080B586B000AF00237B614F4B1B68002B96
:1039D00040F090804D4B1B6801333B614B4A3B6983
:1039E00013603B69002B21D1494B1B681B68002BDE
:1039F0000BD04FF0500383F31188BFF36F8FBFF3E9
:103A00004F8F3B6000BF00BFFDE7414B1B68FB6071
:103A1000404B1B683E4A13603E4AFB6813603E4BB6
:103A20001B6801333C4A136000F0E2FA3B4B1B6811
:103A30003A699A4249D3364B1B681B68002B04D164
:103A4000364B4FF0FF321A603FE0314B1B68DB68AA
:103A5000DB68BB60BB685B687B603A697B689A42E5
:103A600003D22E4A7B6813602FE0BB6804331846EC
:103A7000FEF7F2FDBB689B6A002B04D0BB681833CD
:103A80001846FEF7E9FDBB68DA6A254B1B689A42C7
:103A900003D9BB68DB6A224A1360BB68DA6A134643
:103AA0009B0013449B001F4A1A44BB680433194609
:103AB0001046FEF774FDBB68DA6A1B4B1B68DB6AB5
:103AC0009A42B8D301237B61B5E7174B1B68DA6ACA
:103AD000144913469B0013449B000B441B68012BA5
:103AE00001D901237B61114B1B68002B07D00123F7
:103AF0007B6104E00E4B1B6801330D4A13607B6948
:103B000018461837BD4680BD6C0D0020480D0020BA
:103B1000FC0C0020000D00205C0D0020640D002036
:103B20004C0D00207408002070080020580D002063
:103B3000540D002080B485B000AF2B4B1B68002BC8
:103B400003D02A4B01221A6047E0284B00221A605A
:103B5000274B1B68FB6011E0FB68002B0BD14FF07B
:103B6000500383F31188BFF36F8FBFF34F8F7B60D8
:103B700000BF00BFFDE7FB68013BFB601D49FA6821
:103B800013469B0013449B000B441B68002BE3D09F
:103B9000FA6813469B0013449B00164A1344BB600B
:103BA000BB685B685A68BB685A60BB685A68BB6888
:103BB00008339A4204D1BB685B685A68BB685A6094
:103BC000BB685B68DB680C4A1360094AFB681360DA
:103BD000094B1B685433094A136000BF1437BD46B4
:103BE0005DF8047B704700BF6C0D0020580D00206D
:103BF0004C0D002074080020700800201C000020DC
:103C000080B584B000AF786039607B68002B0BD141
:103C10004FF0500383F31188BFF36F8FBFF34F8FC3
:103C2000FB6000BF00BFFDE7074B1B681833194658
:103C30007868FEF7D8FC0121386800F087FA00BFE9
:103C40001037BD4680BD00BF7008002080B586B02B
:103C500000AFF860B9607A60FB68002B0BD14FF0C1
:103C6000500383F31188BFF36F8FBFF34F8F7B61D6
:103C700000BF00BFFDE70A4B1B6818331946F86800
:103C8000FEF78DFC7B68002B02D04FF0FF33BB604A
:103C90007968B86800F05AFA00BF1837BD4680BD91
:103CA0007008002080B586B000AF78607B68DB6864
:103CB000DB683B613B69002B0BD14FF0500383F372
:103CC0001188BFF36F8FBFF34F8FFB6000BF00BF42
:103CD000FDE73B6918331846FEF7BEFC1D4B1B6819
:103CE000002B1DD13B6904331846FEF7B5FC3B6938
:103CF000DA6A194B1B689A4203D93B69DB6A164A98
:103D000013603B69DA6A13469B0013449B00134A15
:103D10001A443B69043319461046FEF740FC05E09F
:103D20003B69183319460E48FEF739FC3B69DA6ADD
:103D30000C4B1B68DB6A9A4205D901237B610A4B55
:103D400001221A6001E000237B617B691846183765
:103D5000BD4680BD6C0D00204C0D00207408002075
:103D6000040D002070080020580D002080B483B09E
:103D700000AF7860064B1A687B681A60054B1A68BA
:103D80007B685A6000BF0C37BD465DF8047B704706
:103D90005C0D0020480D002080B588B000AF786031
:103DA00039607B68002B0BD14FF0500383F31188EF
:103DB000BFF36F8FBFF34F8F3B6100BF00BFFDE7C5
:103DC0003B68002B0BD14FF0500383F31188BFF3F6
:103DD0006F8FBFF34F8FFB6000BF00BFFDE700F0A8
:103DE00093FE1D4B1B68BB617B685B68BA69D31A85
:103DF0007B613B681B68B3F1FF3F02D10023FB618D
:103E000023E07B681A68154B1B689A4207D07B68D1
:103E10005B68BA699A4202D30123FB6115E03B68F3
:103E20001B687A699A420BD23B681A687B69D21A7E
:103E30003B681A607868FFF799FF0023FB6104E094
:103E40003B6800221A600123FB6100F08FFEFB69D2
:103E500018462037BD4680BD480D00205C0D00206F
:103E600080B400AF034B01221A6000BFBD465DF86D
:103E7000047B7047580D002080B582B000AF786099
:103E800000F052F8064B1B68012BF9D9054B4FF097
:103E900080521A60BFF34F8FBFF36F8FF0E700BF00
:103EA0007408002004ED00E080B582B000AF00236C
:103EB0007B600CE07A6813469B0013449B00124A17
:103EC00013441846FEF73EFB7B6801337B607B683A
:103ED000372BEFD90D48FEF735FB0D48FEF732FBC7
:103EE0000C48FEF72FFB0C48FEF72CFB0B48FEF7A7
:103EF00029FB0B4B054A1A600A4B054A1A6000BFA2
:103F00000837BD4680BD00BF74080020D40C0020D7
:103F1000E80C0020040D0020180D0020300D0020BA
:103F2000FC0C0020000D002080B582B000AF19E02D
:103F300000F0EAFD104BDB68DB687B607B680433D4
:103F40001846FEF789FB0D4B1B68013B0B4A1360BB
:103F50000B4B1B68013B0A4A136000F007FE7868B0
:103F600000F010F8064B1B68002BE1D100BF00BF2A
:103F70000837BD4680BD00BF180D0020440D00204D
:103F80002C0D002080B584B000AF78607B6854337E
:103F9000184601F0D1F87B6893F8A530002B08D1C2
:103FA0007B681B6B184600F09FFF786800F09CFF51
:103FB00019E07B6893F8A530012B03D1786800F0F5
:103FC00093FF10E07B6893F8A530022B0BD04FF0E5
:103FD000500383F31188BFF36F8FBFF34F8FFB60E4
:103FE00000BF00BFFDE700BF1037BD4680BD000029
:103FF00080B483B000AF0C4B1B681B68002B04D14E
:104000000A4B4FF0FF321A6008E0074B1B68DB6871
:10401000DB687B607B685B68044A136000BF0C3719
:10402000BD465DF8047B7047FC0C0020640D002049
:1040300080B483B000AF0B4B1B68002B02D101236F
:104040007B6008E0084B1B68002B02D102237B60D9
:1040500001E000237B607B6818460C37BD465DF8A5
:10406000047B7047500D00206C0D002080B586B099
:1040700000AF78607B683B6100237B617B68002B2D
:1040800058D02F4B1B683A699A420BD04FF050031F
:1040900083F31188BFF36F8FBFF34F8FFB6000BFB7
:1040A00000BFFDE73B691B6D002B0BD14FF05003A8
:1040B00083F31188BFF36F8FBFF34F8FBB6000BFD7
:1040C00000BFFDE73B691B6D5A1E3B691A653B69E2
:1040D000DA6A3B69DB6C9A422CD03B691B6D002B82
:1040E00028D13B6904331846FEF7B6FA3B69DA6C0F
:1040F0003B69DA623B69DB6AC3F138023B699A616A
:104100003B69DA6A0F4B1B689A4203D93B69DB6A49
:104110000C4A13603B69DA6A13469B0013449B0008
:10412000094A1A443B69043319461046FEF737FA28
:1041300001237B617B6918461837BD4680BD00BFEF
:10414000700800204C0D00207408002080B584B059
:1041500000AF78603960214B1B68FB60204B1B6807
:1041600004331846FEF778FA7B68B3F1FF3F0AD1B3
:104170003B68002B07D01A4B1B68043319461948BB
:10418000FEF70DFA26E0FA687B681344BB60144B17
:104190001B68BA685A60BA68FB689A4209D2124B27
:1041A0001A680F4B1B68043319461046FEF71BFABA
:1041B00010E00E4B1A680A4B1B6804331946104670
:1041C000FEF711FA0A4B1B68BA689A4202D2084AF3
:1041D000BB68136000BF1037BD4680BD480D00208E
:1041E00070080020300D0020000D0020FC0C002085
:1041F000640D002080B58AB004AF00237B6100F01D
:1042000013FB1D4B1B68002B21D00023FB600023F8
:10421000BB603A1D07F1080107F10C031846FEF7D1
:1042200077F97968BB68FA680292019302230093D8
:1042300000230A4611491248FEF732FF0346114A8D
:104240001360104B1B68002B01D001237B617B693D
:10425000002B0BD14FF0500383F31188BFF36F8F06
:10426000BFF34F8F3B6100BF00BFFDE77B6918467E
:104270001837BD4680BD00BFA00D00205C5300086C
:10428000C1430008A40D002080B58AB000AFF860DB
:10429000B9607A603B6000237B62FB68002B0BD126
:1042A0004FF0500383F31188BFF36F8FBFF34F8F2D
:1042B0003B6200BF00BFFDE7194B1B68002B2AD0F3
:1042C000BB683B617B687B61FB68BB61BB68052B9E
:1042D00018DCFFF7ADFE0346022B09D1104B18681E
:1042E00007F1100100233A6BFEF7EAFA786212E058
:1042F0000B4B186807F1100100230022FEF7E0FACB
:10430000786208E0064B186807F1100100233A684C
:10431000FEF7D8FB78627B6A18462837BD4680BD19
:10432000A00D002080B588B002AF78603960234BC3
:104330001B68DB68DB687B617B6904331846FEF72A
:104340008BF97B6993F8283003F00403002B23D00A
:104350007B699A697B68D1187B683A68786900F054
:10436000D5F80346002B20D00023009300237A6861
:1043700000217869FFF788FF38613B69002B14D171
:104380004FF0500383F31188BFF36F8FBFF34F8F4C
:10439000FB6000BF00BFFDE77B6993F8283023F086
:1043A0000103DAB27B6983F828207B691B6A78698C
:1043B000984700BF1837BD4680BD00BF980D00204C
:1043C00080B584B000AF786007F10803184600F0AC
:1043D00059F8F860BB681946F86800F005F800F075
:1043E000D7F800BFF0E7000080B584B000AF786078
:1043F0003960FFF729FA07F10803184600F066F85C
:10440000F860BB68002B30D13B68002B0AD17A687A
:10441000FB689A4206D8FFF725FAF9687868FFF733
:1044200081FF24E03B68002B08D0134B1B681B68FE
:10443000002B01D1012300E000233B600F4B1868E3
:104440007A68FB68D31A3A681946FEF7F5FDFFF75C
:1044500009FA0346002B0AD1094B4FF080521A602B
:10446000BFF34F8FBFF36F8F01E0FFF7FBF900BF82
:104470001037BD4680BD00BF9C0D0020A00D002060
:1044800004ED00E080B485B000AF78600E4B1B688F
:104490001B68002B01D1012200E000227B681A601A
:1044A0007B681B68002B05D1074B1B68DB681B680A
:1044B000FB6001E00023FB60FB6818461437BD4633
:1044C0005DF8047B704700BF980D002080B584B074
:1044D00000AF7860FFF764FAF8600B4B1B68FA686E
:1044E0009A4205D200F03AF97B6801221A6002E094
:1044F0007B6800221A60044AFB681360FB68184658
:104500001037BD4680BD00BFA80D002080B586B025
:1045100000AFF860B9607A603B6000237B61FB68A4
:10452000BA685A60FB68FA681A61BA687B689A428E
:1045300012D87A683B68D21AFB689B699A4202D308
:1045400001237B611BE0104B1A68FB68043319469A
:104550001046FEF748F812E07A683B689A4206D2A5
:10456000BA683B689A4202D301237B6107E0074B9C
:104570001A68FB68043319461046FEF734F87B6965
:1045800018461837BD4680BD9C0D0020980D0020B0
:1045900080B58EB002AFCEE07B68002B19DA3B1DF0
:1045A0000433FB62FB6A002B0BD14FF0500383F303
:1045B0001188BFF36F8FBFF34F8FFB6100BF00BF48
:1045C000FDE7FB6A1B68FA6A5068FA6A926811464E
:1045D00098477B68002BC0F2AE80FB68BB62BB6A69
:1045E0005B69002B04D0BB6A04331846FEF734F82D
:1045F0003B461846FFF76AFF78627B68092B00F29A
:10460000978001A252F823F0314600083146000895
:1046100031460008A7460008BB46000807470008C7
:104620003146000831460008A7460008BB4600088E
:10463000BB6A93F8283043F00103DAB2BB6A83F80F
:104640002820BA68BB6A9B69D118BB687A6AB86AC5
:10465000FFF75CFF0346002B6CD0BB6A1B6AB86A8D
:104660009847BB6A93F8283003F00403002B61D00D
:10467000BA68BB6A9B691A44002300930023002197
:10468000B86AFFF701FE38623B6A002B52D14FF047
:10469000500383F31188BFF36F8FBFF34F8FBB615C
:1046A00000BF00BFFDE7BB6A93F8283023F0010389
:1046B000DAB2BB6A83F828203DE0BB6A93F8283061
:1046C00043F00103DAB2BB6A83F82820BA68BB6AF8
:1046D0009A61BB6A9B69002B0BD14FF0500383F3A7
:1046E0001188BFF36F8FBFF34F8F7B6100BF00BF97
:1046F000FDE7BB6A9A697B6AD1187B6A7A6AB86AF5
:10470000FFF704FF17E0BB6A93F8283003F00203B9
:10471000002B03D1B86A00F0E7FB0CE0BB6A93F80A
:10472000283023F00103DAB2BB6A83F8282002E0C4
:1047300000BF00E000BF084B1B68391D002218466F
:10474000FEF75EFA0346002B7FF426AF00BF00BFE2
:104750003037BD4680BD00BFA00D002080B588B0B9
:1047600002AF49E02E4B1B68DB681B683B612C4B9A
:104770001B68DB68DB68FB60FB6804331846FDF7E9
:104780006BFFFB681B6AF8689847FB6893F8283052
:1047900003F00403002B2FD0FB689B693A69134494
:1047A000BB60BA683B699A420ED9FB68BA685A6026
:1047B000FB68FA681A611A4B1A68FB6804331946D9
:1047C0001046FDF710FF17E00023009300233A691D
:1047D0000021F868FFF758FD78607B68002B0BD14B
:1047E0004FF0500383F31188BFF36F8FBFF34F8FE8
:1047F0003B6000BF00BFFDE7094B1B681B68002B37
:10480000B0D1074B1B687B61064B1B68044A1360E1
:10481000044A7B69136000BF1837BD4680BD00BFE6
:10482000980D00209C0D002080B582B002AF00F0F2
:104830006BF9154B1B68002B20D11448FDF782FE45
:104840001348FDF77FFE134B104A1A60124B104AB3
:104850001A6000230093114B114A10210A20FDF722
:104860008FFF0346084A1360074B1B68002B05D0D7
:10487000054B1B680B491846FEF7B4FB00F076F9B0
:1048800000BFBD4680BD00BFA00D0020700D002000
:10489000840D0020980D00209C0D00204C0E00205F
:1048A000AC0D00206453000880B485B000AFF86000
:1048B000B9607A60FB68043BFB60FB684FF0807274
:1048C0001A60FB68043BFB60BB6823F00102FB68D5
:1048D0001A60FB68043BFB600C4AFB681A60FB68CB
:1048E000143BFB607A68FB681A60FB68043BFB6062
:1048F000FB686FF002021A60FB68203BFB60FB68FC
:1049000018461437BD465DF8047B7047114900080E
:1049100080B485B000AF00237B60134B1B68B3F1FC
:10492000FF3F0BD04FF0500383F31188BFF36F8F1D
:10493000BFF34F8FFB6000BF00BFFDE74FF0500398
:1049400083F31188BFF36F8FBFF34F8FBB6000BF3E
:1049500000BF7B68002BFCD000BF00BF1437BD46F2
:104960005DF8047B704700BF1800002000000000C5
:10497000074B19680868B0E8F04F80F30988BFF367
:104980006F8F4FF0000080F311887047AFF3008005
:104990007008002000BF00BF08480068006880F36E
:1049A00008884FF0000080F3148862B661B6BFF348
:1049B0004F8FBFF36F8F00DF00BF00BF08ED00E037
:1049C00080B586B000AF474B1B68474A93420BD176
:1049D0004FF0500383F31188BFF36F8FBFF34F8FF6
:1049E0003B6100BF00BFFDE73E4B1B683F4A93425F
:1049F0000BD14FF0500383F31188BFF36F8FBFF3D8
:104A00004F8FFB6000BF00BFFDE7394B7B617B69C7
:104A10001B78DBB27B607B69FF221A707B691B7895
:104A2000DBB2FB70FB78DBB203F05003DAB2314B40
:104A30001A70314B07221A6009E02F4B1B68013BAB
:104A40002D4A1360FB78DBB25B00DBB2FB70FB78B6
:104A5000DBB203F08003802BEFD0274B1B68C3F140
:104A60000703042B0BD04FF0500383F31188BFF3DF
:104A70006F8FBFF34F8FBB6000BF00BFFDE71E4BC2
:104A80001B681B021C4A13601B4B1B6803F4E0638A
:104A9000194A13607B68DAB27B691A70174B1B687E
:104AA000164A43F470031360144B1B68134A43F017
:104AB0007043136000F0DAF8114B00221A6000F026
:104AC000F9F8104B1B680F4A43F040431360FFF79F
:104AD00063FFFFF72FF8FFF71BFF00231846183777
:104AE000BD4680BD00ED00E071C20F4170C20F41B4
:104AF00000E400E09C0E0020A00E002020ED00E06D
:104B00001800002034EF00E080B483B000AF4FF015
:104B1000500383F31188BFF36F8FBFF34F8F7B6018
:104B200000BF104B1B6801330E4A13600D4B1B680E
:104B3000012B10D10C4B1B68DBB2002B0BD04FF0BC
:104B4000500383F31188BFF36F8FBFF34F8F3B6028
:104B500000BF00BFFDE700BF0C37BD465DF8047B1A
:104B6000704700BF1800002004ED00E080B483B05F
:104B700000AF124B1B68002B0BD14FF0500383F397
:104B80001188BFF36F8FBFF34F8F7B6000BF00BFF3
:104B9000FDE70A4B1B68013B084A1360074B1B6883
:104BA000002B05D100233B603B6883F3118800BFD5
:104BB00000BF0C37BD465DF8047B7047180000202D
:104BC000EFF30980BFF36F8F154B1A681EF0100FBB
:104BD00008BF20ED108A20E9F04F10602DE9090090
:104BE0004FF0500080F31188BFF34F8FBFF36F8FEA
:104BF000FEF7A0FF4FF0000080F3118809BC196890
:104C00000868B0E8F04F1EF0100F08BFB0EC108A33
:104C100080F30988BFF36F8F704700BFAFF3008048
:104C20007008002000BF00BF80B582B000AF4FF019
:104C3000500383F31188BFF36F8FBFF34F8F7B60F7
:104C400000BFFEF7BDFE0346002B03D0064B4FF01E
:104C500080521A6000233B603B6883F3118800BFD9
:104C600000BF0837BD4680BD04ED00E080B400AF52
:104C70000B4B00221A600B4B00221A600A4B1B6878
:104C80000A4AA2FB03239B09094A013B1360044B18
:104C900007221A6000BFBD465DF8047B704700BF65
:104CA00010E000E018E000E000000020D34D6210AA
:104CB00014E000E0DFF80C00016841F470010160CD
:104CC000704700BF88ED00E080B485B000AFEFF31F
:104CD0000583FB60FB680F2B15D9184AFB6813444A
:104CE0001B78FB72164B1B78FA7A9A420BD24FF064
:104CF000500383F31188BFF36F8FBFF34F8F7B6037
:104D000000BF00BFFDE70F4B1B6803F4E0620E4BD2
:104D10001B689A420BD94FF0500383F31188BFF3FD
:104D20006F8FBFF34F8F3B6000BF00BFFDE700BF39
:104D30001437BD465DF8047B704700BFF0E300E028
:104D40009C0E00200CED00E0A00E002080B58AB083
:104D500000AF78600023FB61FEF776FD5C4B1B68BB
:104D6000002B01D100F024F95A4B1A687B681340DC
:104D7000002B40F095807B68002B1ED008227B68BA
:104D800013447B607B6803F00703002B15D07B681E
:104D900023F0070308337B607B6803F00703002BD5
:104DA0000BD04FF0500383F31188BFF36F8FBFF325
:104DB0004F8F7B6100BF00BFFDE77B68002B6FD08A
:104DC000454B1B687A689A426AD8444B3B62434B16
:104DD0001B687B6204E07B6A3B627B6A1B687B62C8
:104DE0007B6A5B687A689A4203D97B6A1B68002BEE
:104DF000F1D1374B1B687A6A9A4251D03B6A1B68E3
:104E000008221344FB617B6A1A683B6A1A607B6A5A
:104E10005A687B68D21A08235B009A4220D97A6AC2
:104E20007B681344BB61BB6903F00703002B0BD005
:104E30004FF0500383F31188BFF36F8FBFF34F8F91
:104E40003B6100BF00BFFDE77B6A5A687B68D21AEE
:104E5000BB695A607B6A7A685A60B86900F00AF9DF
:104E60001D4B1A687B6A5B68D31A1B4A13601A4B86
:104E70001A681B4B1B689A4203D2174B1B68184ACF
:104E800013607B6A5A68134B1B681A437B6A5A602B
:104E90007B6A00221A60134B1B680133114A1360AE
:104EA000FEF7E0FCFB6903F00703002B0BD04FF08B
:104EB000500383F31188BFF36F8FBFF34F8FFB60F5
:104EC00000BF00BFFDE7FB6918462837BD4680BD1F
:104ED000AC4A0020C04A0020B04A0020A44A00206A
:104EE000B44A0020B84A002080B586B000AF786090
:104EF0007B687B617B68002B4FD008235B427A691B
:104F000013447B617B693B613B695A68254B1B6895
:104F10001340002B0BD14FF0500383F31188BFF3E4
:104F20006F8FBFF34F8FFB6000BF00BFFDE73B6992
:104F30001B68002B0BD04FF0500383F31188BFF395
:104F40006F8FBFF34F8FBB6000BF00BFFDE73B69B2
:104F50005A68144B1B681340002B1ED03B691B681A
:104F6000002B1AD13B695A680E4B1B68DB431A4071
:104F70003B695A60FEF768FC3B695A680A4B1B683C
:104F80001344094A1360386900F074F8074B1B6832
:104F90000133064A1360FEF765FC00BF1837BD46B3
:104FA00080BD00BFC04A0020B04A0020BC4A00209B
:104FB00080B485B000AF4FF47053BB60274BFB60EB
:104FC000FB6803F00703002B0CD0FB680733FB6082
:104FD000FB6823F00703FB60BA68FB68D31A1F4A1B
:104FE0001344BB60FB687B601D4A7B6813601C4BED
:104FF00000225A607B68BA681344FB600822FB6891
:105000009B1AFB60FB6823F00703FB60FB68154AF3
:105010001360144B1B6800225A60124B1B6800225D
:105020001A607B683B603B68FA68D21A3B685A603A
:105030000C4B1A683B681A603B685B680A4A13604D
:105040003B685B68094A1360094B4FF000421A60E5
:1050500000BF1437BD465DF8047B7047A40E0020E6
:10506000A44A0020AC4A0020B44A0020B04A0020E4
:10507000C04A002080B485B000AF7860284BFB6048
:1050800002E0FB681B68FB60FB681B687A689A4259
:10509000F7D8FB68BB60FB685B68BA6813447A6842
:1050A0009A4208D1FB685A687B685B681A44FB68BF
:1050B0005A60FB687B607B68BB607B685B68BA6832
:1050C0001A44FB681B689A4218D1FB681A68154B92
:1050D0001B689A420DD07B685A68FB681B685B6846
:1050E0001A447B685A60FB681B681A687B681A6000
:1050F00008E00C4B1A687B681A6003E0FB681A68CA
:105100007B681A60FA687B689A4202D0FB687A680A
:105110001A6000BF1437BD465DF8047B704700BFBE
:10512000A44A0020AC4A002002440346934200D126
:10513000704703F8011BF9E7294B1B68834270B5E0
:1051400004464BD0C369ABB1DB686BB10025E369A2
:10515000DB68595900293BD10435802DF7D1E3692B
:105160002046D96800F072F8E369196811B1204649
:1051700000F06CF8616911B1204600F067F8E16950
:1051800011B1204600F062F8216B11B1204600F009
:105190005DF8616B11B1204600F058F8A16B11B1B8
:1051A000204600F053F8A16C11B1204600F04EF8F3
:1051B000616C11B1204600F049F8E16A11B1204656
:1051C00000F044F8236A4BB12046BDE87040184710
:1051D0000E68204600F03AF83146BBE770BD00BFCC
:1051E0001C00002070B50D4D0D4C641BA410002652
:1051F000A64209D10B4D0C4C00F07EF8641BA410A4
:105200000026A64205D170BD55F8043B98470136EB
:10521000EEE755F8043B98470136F2E78C53000857
:105220008C5300088C530008905300087047704757
:105230000A44914200F1FF3300D1704710B511F8D4
:10524000014B03F8014F9142F9D110BD38B5054625
:10525000002941D051F8043C0C1F002BB8BFE418C2
:1052600000F03EF81D4A136833B9636014602846A5
:10527000BDE8384000F03AB8A34208D920682118A8
:105280008B4201BF19685B6809182160EDE71A4677
:105290005B680BB1A342FAD911685018A0420BD138
:1052A00020680144501883421160E0D118685B689F
:1052B000536008441060DAE702D90C232B60D6E76C
:1052C000206821188B4204BF19685B68636004BFC3
:1052D000091821605460CAE738BD00BF004C0020A7
:1052E0000148FFF7A3BF00BFFC4B00200148FFF7B8
:1052F0009EBF00BFFC4B0020F8B500BFF8BC08BC47
:105300009E467047F8B500BFF8BC08BC9E46704783
:1053100054726166666963204D756C7469706C6562
:105320007800000054726166666963204C696768A2
:1053300074000000547261666669632054696D658B
:10534000720000004D616E75616C20436F6E747267
:105350006F6C000049444C4500000000546D722001
:1053600053766300546D725100000000000000008D
:105370000000000001020304060708090000000005
:04538000010203041F
:085384008CAEFF7F0100000068
:04538C00C50100084F
:04539000A10100086F
:105394000024F4003F065B4F666D7D077F6F0000BD
:1053A4001000000001000000AAAAAAAA2000002000
:1053B40000000000C44A00202C4B0020944B002025
:1053C40000000000000000000000000000000000D9
:1053D40000000000000000000000000000000000C9
:1053E40000000000000000000000000000000000B9
:0C53F400000000000000000000000000AD
:0400000508000AD114
:00000001FF
